{
	"contracts/Twitter.sol": {
		"Twitter": {
			"abi": [
				{
					"inputs": [
						{
							"internalType": "string",
							"name": "_tweet",
							"type": "string"
						}
					],
					"name": "createTweet",
					"outputs": [],
					"stateMutability": "nonpayable",
					"type": "function"
				},
				{
					"inputs": [],
					"name": "getAllTweets",
					"outputs": [
						{
							"components": [
								{
									"internalType": "address",
									"name": "author",
									"type": "address"
								},
								{
									"internalType": "string",
									"name": "content",
									"type": "string"
								},
								{
									"internalType": "uint256",
									"name": "timestamp",
									"type": "uint256"
								},
								{
									"internalType": "uint256",
									"name": "likes",
									"type": "uint256"
								}
							],
							"internalType": "struct Twitter.Tweet[]",
							"name": "",
							"type": "tuple[]"
						}
					],
					"stateMutability": "view",
					"type": "function"
				},
				{
					"inputs": [
						{
							"internalType": "uint256",
							"name": "_i",
							"type": "uint256"
						}
					],
					"name": "getTweet",
					"outputs": [
						{
							"components": [
								{
									"internalType": "address",
									"name": "author",
									"type": "address"
								},
								{
									"internalType": "string",
									"name": "content",
									"type": "string"
								},
								{
									"internalType": "uint256",
									"name": "timestamp",
									"type": "uint256"
								},
								{
									"internalType": "uint256",
									"name": "likes",
									"type": "uint256"
								}
							],
							"internalType": "struct Twitter.Tweet",
							"name": "",
							"type": "tuple"
						}
					],
					"stateMutability": "view",
					"type": "function"
				},
				{
					"inputs": [
						{
							"internalType": "address",
							"name": "",
							"type": "address"
						},
						{
							"internalType": "uint256",
							"name": "",
							"type": "uint256"
						}
					],
					"name": "tweets",
					"outputs": [
						{
							"internalType": "address",
							"name": "author",
							"type": "address"
						},
						{
							"internalType": "string",
							"name": "content",
							"type": "string"
						},
						{
							"internalType": "uint256",
							"name": "timestamp",
							"type": "uint256"
						},
						{
							"internalType": "uint256",
							"name": "likes",
							"type": "uint256"
						}
					],
					"stateMutability": "view",
					"type": "function"
				}
			],
			"devdoc": {
				"kind": "dev",
				"methods": {},
				"version": 1
			},
			"evm": {
				"assembly": "    /* \"contracts/Twitter.sol\":59:743  contract Twitter {... */\n  mstore(0x40, 0x80)\n  callvalue\n  dup1\n  iszero\n  tag_1\n  jumpi\n  0x00\n  dup1\n  revert\ntag_1:\n  pop\n  dataSize(sub_0)\n  dup1\n  dataOffset(sub_0)\n  0x00\n  codecopy\n  0x00\n  return\nstop\n\nsub_0: assembly {\n        /* \"contracts/Twitter.sol\":59:743  contract Twitter {... */\n      mstore(0x40, 0x80)\n      callvalue\n      dup1\n      iszero\n      tag_1\n      jumpi\n      0x00\n      dup1\n      revert\n    tag_1:\n      pop\n      jumpi(tag_2, lt(calldatasize, 0x04))\n      shr(0xe0, calldataload(0x00))\n      dup1\n      0x05a1b4a9\n      eq\n      tag_3\n      jumpi\n      dup1\n      0x53256135\n      eq\n      tag_4\n      jumpi\n      dup1\n      0x7c9cd2bc\n      eq\n      tag_5\n      jumpi\n      dup1\n      0xc3ad5ecb\n      eq\n      tag_6\n      jumpi\n    tag_2:\n      0x00\n      dup1\n      revert\n        /* \"contracts/Twitter.sol\":199:241  mapping(address => Tweet[])  public tweets */\n    tag_3:\n      tag_7\n      0x04\n      dup1\n      calldatasize\n      sub\n      dup2\n      add\n      swap1\n      tag_8\n      swap2\n      swap1\n      tag_9\n      jump\t// in\n    tag_8:\n      tag_10\n      jump\t// in\n    tag_7:\n      mload(0x40)\n      tag_11\n      swap5\n      swap4\n      swap3\n      swap2\n      swap1\n      tag_12\n      jump\t// in\n    tag_11:\n      mload(0x40)\n      dup1\n      swap2\n      sub\n      swap1\n      return\n        /* \"contracts/Twitter.sol\":638:741  function getAllTweets() public  view  returns(Tweet[] memory){... */\n    tag_4:\n      tag_13\n      tag_14\n      jump\t// in\n    tag_13:\n      mload(0x40)\n      tag_15\n      swap2\n      swap1\n      tag_16\n      jump\t// in\n    tag_15:\n      mload(0x40)\n      dup1\n      swap2\n      sub\n      swap1\n      return\n        /* \"contracts/Twitter.sol\":247:521  function createTweet(string memory _tweet) public {... */\n    tag_5:\n      tag_17\n      0x04\n      dup1\n      calldatasize\n      sub\n      dup2\n      add\n      swap1\n      tag_18\n      swap2\n      swap1\n      tag_19\n      jump\t// in\n    tag_18:\n      tag_20\n      jump\t// in\n    tag_17:\n      stop\n        /* \"contracts/Twitter.sol\":526:633  function getTweet(uint _i) public view  returns(Tweet memory){... */\n    tag_6:\n      tag_21\n      0x04\n      dup1\n      calldatasize\n      sub\n      dup2\n      add\n      swap1\n      tag_22\n      swap2\n      swap1\n      tag_23\n      jump\t// in\n    tag_22:\n      tag_24\n      jump\t// in\n    tag_21:\n      mload(0x40)\n      tag_25\n      swap2\n      swap1\n      tag_26\n      jump\t// in\n    tag_25:\n      mload(0x40)\n      dup1\n      swap2\n      sub\n      swap1\n      return\n        /* \"contracts/Twitter.sol\":199:241  mapping(address => Tweet[])  public tweets */\n    tag_10:\n      mstore(0x20, 0x00)\n      dup2\n      0x00\n      mstore\n      keccak256(0x00, 0x40)\n      dup2\n      dup2\n      sload\n      dup2\n      lt\n      tag_27\n      jumpi\n      0x00\n      dup1\n      revert\n    tag_27:\n      swap1\n      0x00\n      mstore\n      keccak256(0x00, 0x20)\n      swap1\n      0x04\n      mul\n      add\n      0x00\n      swap2\n      pop\n      swap2\n      pop\n      pop\n      dup1\n      0x00\n      add\n      0x00\n      swap1\n      sload\n      swap1\n      0x0100\n      exp\n      swap1\n      div\n      0xffffffffffffffffffffffffffffffffffffffff\n      and\n      swap1\n      dup1\n      0x01\n      add\n      dup1\n      sload\n      tag_29\n      swap1\n      tag_30\n      jump\t// in\n    tag_29:\n      dup1\n      0x1f\n      add\n      0x20\n      dup1\n      swap2\n      div\n      mul\n      0x20\n      add\n      mload(0x40)\n      swap1\n      dup2\n      add\n      0x40\n      mstore\n      dup1\n      swap3\n      swap2\n      swap1\n      dup2\n      dup2\n      mstore\n      0x20\n      add\n      dup3\n      dup1\n      sload\n      tag_31\n      swap1\n      tag_30\n      jump\t// in\n    tag_31:\n      dup1\n      iszero\n      tag_32\n      jumpi\n      dup1\n      0x1f\n      lt\n      tag_33\n      jumpi\n      0x0100\n      dup1\n      dup4\n      sload\n      div\n      mul\n      dup4\n      mstore\n      swap2\n      0x20\n      add\n      swap2\n      jump(tag_32)\n    tag_33:\n      dup3\n      add\n      swap2\n      swap1\n      0x00\n      mstore\n      keccak256(0x00, 0x20)\n      swap1\n    tag_34:\n      dup2\n      sload\n      dup2\n      mstore\n      swap1\n      0x01\n      add\n      swap1\n      0x20\n      add\n      dup1\n      dup4\n      gt\n      tag_34\n      jumpi\n      dup3\n      swap1\n      sub\n      0x1f\n      and\n      dup3\n      add\n      swap2\n    tag_32:\n      pop\n      pop\n      pop\n      pop\n      pop\n      swap1\n      dup1\n      0x02\n      add\n      sload\n      swap1\n      dup1\n      0x03\n      add\n      sload\n      swap1\n      pop\n      dup5\n      jump\t// out\n        /* \"contracts/Twitter.sol\":638:741  function getAllTweets() public  view  returns(Tweet[] memory){... */\n    tag_14:\n        /* \"contracts/Twitter.sol\":684:698  Tweet[] memory */\n      0x60\n        /* \"contracts/Twitter.sol\":716:722  tweets */\n      0x00\n        /* \"contracts/Twitter.sol\":716:734  tweets[msg.sender] */\n      dup1\n        /* \"contracts/Twitter.sol\":723:733  msg.sender */\n      caller\n        /* \"contracts/Twitter.sol\":716:734  tweets[msg.sender] */\n      0xffffffffffffffffffffffffffffffffffffffff\n      and\n      0xffffffffffffffffffffffffffffffffffffffff\n      and\n      dup2\n      mstore\n      0x20\n      add\n      swap1\n      dup2\n      mstore\n      0x20\n      add\n      0x00\n      keccak256\n        /* \"contracts/Twitter.sol\":709:734  return tweets[msg.sender] */\n      dup1\n      sload\n      dup1\n      0x20\n      mul\n      0x20\n      add\n      mload(0x40)\n      swap1\n      dup2\n      add\n      0x40\n      mstore\n      dup1\n      swap3\n      swap2\n      swap1\n      dup2\n      dup2\n      mstore\n      0x20\n      add\n      0x00\n      swap1\n    tag_36:\n      dup3\n      dup3\n      lt\n      iszero\n      tag_37\n      jumpi\n      dup4\n      dup3\n      swap1\n      0x00\n      mstore\n      keccak256(0x00, 0x20)\n      swap1\n      0x04\n      mul\n      add\n      mload(0x40)\n      dup1\n      0x80\n      add\n      0x40\n      mstore\n      swap1\n      dup2\n      0x00\n      dup3\n      add\n      0x00\n      swap1\n      sload\n      swap1\n      0x0100\n      exp\n      swap1\n      div\n      0xffffffffffffffffffffffffffffffffffffffff\n      and\n      0xffffffffffffffffffffffffffffffffffffffff\n      and\n      0xffffffffffffffffffffffffffffffffffffffff\n      and\n      dup2\n      mstore\n      0x20\n      add\n      0x01\n      dup3\n      add\n      dup1\n      sload\n      tag_39\n      swap1\n      tag_30\n      jump\t// in\n    tag_39:\n      dup1\n      0x1f\n      add\n      0x20\n      dup1\n      swap2\n      div\n      mul\n      0x20\n      add\n      mload(0x40)\n      swap1\n      dup2\n      add\n      0x40\n      mstore\n      dup1\n      swap3\n      swap2\n      swap1\n      dup2\n      dup2\n      mstore\n      0x20\n      add\n      dup3\n      dup1\n      sload\n      tag_40\n      swap1\n      tag_30\n      jump\t// in\n    tag_40:\n      dup1\n      iszero\n      tag_41\n      jumpi\n      dup1\n      0x1f\n      lt\n      tag_42\n      jumpi\n      0x0100\n      dup1\n      dup4\n      sload\n      div\n      mul\n      dup4\n      mstore\n      swap2\n      0x20\n      add\n      swap2\n      jump(tag_41)\n    tag_42:\n      dup3\n      add\n      swap2\n      swap1\n      0x00\n      mstore\n      keccak256(0x00, 0x20)\n      swap1\n    tag_43:\n      dup2\n      sload\n      dup2\n      mstore\n      swap1\n      0x01\n      add\n      swap1\n      0x20\n      add\n      dup1\n      dup4\n      gt\n      tag_43\n      jumpi\n      dup3\n      swap1\n      sub\n      0x1f\n      and\n      dup3\n      add\n      swap2\n    tag_41:\n      pop\n      pop\n      pop\n      pop\n      pop\n      dup2\n      mstore\n      0x20\n      add\n      0x02\n      dup3\n      add\n      sload\n      dup2\n      mstore\n      0x20\n      add\n      0x03\n      dup3\n      add\n      sload\n      dup2\n      mstore\n      pop\n      pop\n      dup2\n      mstore\n      0x20\n      add\n      swap1\n      0x01\n      add\n      swap1\n      jump(tag_36)\n    tag_37:\n      pop\n      pop\n      pop\n      pop\n      swap1\n      pop\n        /* \"contracts/Twitter.sol\":638:741  function getAllTweets() public  view  returns(Tweet[] memory){... */\n      swap1\n      jump\t// out\n        /* \"contracts/Twitter.sol\":247:521  function createTweet(string memory _tweet) public {... */\n    tag_20:\n        /* \"contracts/Twitter.sol\":307:328  Tweet memory newTweet */\n      0x00\n        /* \"contracts/Twitter.sol\":331:471  Tweet({... */\n      mload(0x40)\n      dup1\n      0x80\n      add\n      0x40\n      mstore\n      dup1\n        /* \"contracts/Twitter.sol\":359:369  msg.sender */\n      caller\n        /* \"contracts/Twitter.sol\":331:471  Tweet({... */\n      0xffffffffffffffffffffffffffffffffffffffff\n      and\n      dup2\n      mstore\n      0x20\n      add\n        /* \"contracts/Twitter.sol\":392:398  _tweet */\n      dup4\n        /* \"contracts/Twitter.sol\":331:471  Tweet({... */\n      dup2\n      mstore\n      0x20\n      add\n        /* \"contracts/Twitter.sol\":424:439  block.timestamp */\n      timestamp\n        /* \"contracts/Twitter.sol\":331:471  Tweet({... */\n      dup2\n      mstore\n      0x20\n      add\n        /* \"contracts/Twitter.sol\":459:460  0 */\n      0x00\n        /* \"contracts/Twitter.sol\":331:471  Tweet({... */\n      dup2\n      mstore\n      pop\n        /* \"contracts/Twitter.sol\":307:471  Tweet memory newTweet = Tweet({... */\n      swap1\n      pop\n        /* \"contracts/Twitter.sol\":481:487  tweets */\n      0x00\n        /* \"contracts/Twitter.sol\":481:499  tweets[msg.sender] */\n      dup1\n        /* \"contracts/Twitter.sol\":488:498  msg.sender */\n      caller\n        /* \"contracts/Twitter.sol\":481:499  tweets[msg.sender] */\n      0xffffffffffffffffffffffffffffffffffffffff\n      and\n      0xffffffffffffffffffffffffffffffffffffffff\n      and\n      dup2\n      mstore\n      0x20\n      add\n      swap1\n      dup2\n      mstore\n      0x20\n      add\n      0x00\n      keccak256\n        /* \"contracts/Twitter.sol\":505:513  newTweet */\n      dup2\n        /* \"contracts/Twitter.sol\":481:514  tweets[msg.sender].push(newTweet) */\n      swap1\n      dup1\n      0x01\n      dup2\n      sload\n      add\n      dup1\n      dup3\n      sstore\n      dup1\n      swap2\n      pop\n      pop\n      0x01\n      swap1\n      sub\n      swap1\n      0x00\n      mstore\n      keccak256(0x00, 0x20)\n      swap1\n      0x04\n      mul\n      add\n      0x00\n      swap1\n      swap2\n      swap1\n      swap2\n      swap1\n      swap2\n      pop\n      0x00\n      dup3\n      add\n      mload\n      dup2\n      0x00\n      add\n      exp(0x0100, 0x00)\n      dup2\n      sload\n      dup2\n      0xffffffffffffffffffffffffffffffffffffffff\n      mul\n      not\n      and\n      swap1\n      dup4\n      0xffffffffffffffffffffffffffffffffffffffff\n      and\n      mul\n      or\n      swap1\n      sstore\n      pop\n      0x20\n      dup3\n      add\n      mload\n      dup2\n      0x01\n      add\n      swap1\n      dup2\n      tag_46\n      swap2\n      swap1\n      tag_47\n      jump\t// in\n    tag_46:\n      pop\n      0x40\n      dup3\n      add\n      mload\n      dup2\n      0x02\n      add\n      sstore\n      0x60\n      dup3\n      add\n      mload\n      dup2\n      0x03\n      add\n      sstore\n      pop\n      pop\n        /* \"contracts/Twitter.sol\":297:521  {... */\n      pop\n        /* \"contracts/Twitter.sol\":247:521  function createTweet(string memory _tweet) public {... */\n      pop\n      jump\t// out\n        /* \"contracts/Twitter.sol\":526:633  function getTweet(uint _i) public view  returns(Tweet memory){... */\n    tag_24:\n        /* \"contracts/Twitter.sol\":574:586  Tweet memory */\n      tag_48\n      tag_49\n      jump\t// in\n    tag_48:\n        /* \"contracts/Twitter.sol\":604:610  tweets */\n      0x00\n        /* \"contracts/Twitter.sol\":604:622  tweets[msg.sender] */\n      dup1\n        /* \"contracts/Twitter.sol\":611:621  msg.sender */\n      caller\n        /* \"contracts/Twitter.sol\":604:622  tweets[msg.sender] */\n      0xffffffffffffffffffffffffffffffffffffffff\n      and\n      0xffffffffffffffffffffffffffffffffffffffff\n      and\n      dup2\n      mstore\n      0x20\n      add\n      swap1\n      dup2\n      mstore\n      0x20\n      add\n      0x00\n      keccak256\n        /* \"contracts/Twitter.sol\":623:625  _i */\n      dup3\n        /* \"contracts/Twitter.sol\":604:626  tweets[msg.sender][_i] */\n      dup2\n      sload\n      dup2\n      lt\n      tag_51\n      jumpi\n      tag_52\n      tag_53\n      jump\t// in\n    tag_52:\n    tag_51:\n      swap1\n      0x00\n      mstore\n      keccak256(0x00, 0x20)\n      swap1\n      0x04\n      mul\n      add\n        /* \"contracts/Twitter.sol\":597:626  return tweets[msg.sender][_i] */\n      mload(0x40)\n      dup1\n      0x80\n      add\n      0x40\n      mstore\n      swap1\n      dup2\n      0x00\n      dup3\n      add\n      0x00\n      swap1\n      sload\n      swap1\n      0x0100\n      exp\n      swap1\n      div\n      0xffffffffffffffffffffffffffffffffffffffff\n      and\n      0xffffffffffffffffffffffffffffffffffffffff\n      and\n      0xffffffffffffffffffffffffffffffffffffffff\n      and\n      dup2\n      mstore\n      0x20\n      add\n      0x01\n      dup3\n      add\n      dup1\n      sload\n      tag_55\n      swap1\n      tag_30\n      jump\t// in\n    tag_55:\n      dup1\n      0x1f\n      add\n      0x20\n      dup1\n      swap2\n      div\n      mul\n      0x20\n      add\n      mload(0x40)\n      swap1\n      dup2\n      add\n      0x40\n      mstore\n      dup1\n      swap3\n      swap2\n      swap1\n      dup2\n      dup2\n      mstore\n      0x20\n      add\n      dup3\n      dup1\n      sload\n      tag_56\n      swap1\n      tag_30\n      jump\t// in\n    tag_56:\n      dup1\n      iszero\n      tag_57\n      jumpi\n      dup1\n      0x1f\n      lt\n      tag_58\n      jumpi\n      0x0100\n      dup1\n      dup4\n      sload\n      div\n      mul\n      dup4\n      mstore\n      swap2\n      0x20\n      add\n      swap2\n      jump(tag_57)\n    tag_58:\n      dup3\n      add\n      swap2\n      swap1\n      0x00\n      mstore\n      keccak256(0x00, 0x20)\n      swap1\n    tag_59:\n      dup2\n      sload\n      dup2\n      mstore\n      swap1\n      0x01\n      add\n      swap1\n      0x20\n      add\n      dup1\n      dup4\n      gt\n      tag_59\n      jumpi\n      dup3\n      swap1\n      sub\n      0x1f\n      and\n      dup3\n      add\n      swap2\n    tag_57:\n      pop\n      pop\n      pop\n      pop\n      pop\n      dup2\n      mstore\n      0x20\n      add\n      0x02\n      dup3\n      add\n      sload\n      dup2\n      mstore\n      0x20\n      add\n      0x03\n      dup3\n      add\n      sload\n      dup2\n      mstore\n      pop\n      pop\n      swap1\n      pop\n        /* \"contracts/Twitter.sol\":526:633  function getTweet(uint _i) public view  returns(Tweet memory){... */\n      swap2\n      swap1\n      pop\n      jump\t// out\n    tag_49:\n      mload(0x40)\n      dup1\n      0x80\n      add\n      0x40\n      mstore\n      dup1\n      and(0xffffffffffffffffffffffffffffffffffffffff, 0x00)\n      dup2\n      mstore\n      0x20\n      add\n      0x60\n      dup2\n      mstore\n      0x20\n      add\n      0x00\n      dup2\n      mstore\n      0x20\n      add\n      0x00\n      dup2\n      mstore\n      pop\n      swap1\n      jump\t// out\n        /* \"#utility.yul\":7:82   */\n    tag_60:\n        /* \"#utility.yul\":40:46   */\n      0x00\n        /* \"#utility.yul\":73:75   */\n      0x40\n        /* \"#utility.yul\":67:76   */\n      mload\n        /* \"#utility.yul\":57:76   */\n      swap1\n      pop\n        /* \"#utility.yul\":7:82   */\n      swap1\n      jump\t// out\n        /* \"#utility.yul\":88:205   */\n    tag_61:\n        /* \"#utility.yul\":197:198   */\n      0x00\n        /* \"#utility.yul\":194:195   */\n      dup1\n        /* \"#utility.yul\":187:199   */\n      revert\n        /* \"#utility.yul\":211:328   */\n    tag_62:\n        /* \"#utility.yul\":320:321   */\n      0x00\n        /* \"#utility.yul\":317:318   */\n      dup1\n        /* \"#utility.yul\":310:322   */\n      revert\n        /* \"#utility.yul\":334:460   */\n    tag_63:\n        /* \"#utility.yul\":371:378   */\n      0x00\n        /* \"#utility.yul\":411:453   */\n      0xffffffffffffffffffffffffffffffffffffffff\n        /* \"#utility.yul\":404:409   */\n      dup3\n        /* \"#utility.yul\":400:454   */\n      and\n        /* \"#utility.yul\":389:454   */\n      swap1\n      pop\n        /* \"#utility.yul\":334:460   */\n      swap2\n      swap1\n      pop\n      jump\t// out\n        /* \"#utility.yul\":466:562   */\n    tag_64:\n        /* \"#utility.yul\":503:510   */\n      0x00\n        /* \"#utility.yul\":532:556   */\n      tag_120\n        /* \"#utility.yul\":550:555   */\n      dup3\n        /* \"#utility.yul\":532:556   */\n      tag_63\n      jump\t// in\n    tag_120:\n        /* \"#utility.yul\":521:556   */\n      swap1\n      pop\n        /* \"#utility.yul\":466:562   */\n      swap2\n      swap1\n      pop\n      jump\t// out\n        /* \"#utility.yul\":568:690   */\n    tag_65:\n        /* \"#utility.yul\":641:665   */\n      tag_122\n        /* \"#utility.yul\":659:664   */\n      dup2\n        /* \"#utility.yul\":641:665   */\n      tag_64\n      jump\t// in\n    tag_122:\n        /* \"#utility.yul\":634:639   */\n      dup2\n        /* \"#utility.yul\":631:666   */\n      eq\n        /* \"#utility.yul\":621:684   */\n      tag_123\n      jumpi\n        /* \"#utility.yul\":680:681   */\n      0x00\n        /* \"#utility.yul\":677:678   */\n      dup1\n        /* \"#utility.yul\":670:682   */\n      revert\n        /* \"#utility.yul\":621:684   */\n    tag_123:\n        /* \"#utility.yul\":568:690   */\n      pop\n      jump\t// out\n        /* \"#utility.yul\":696:835   */\n    tag_66:\n        /* \"#utility.yul\":742:747   */\n      0x00\n        /* \"#utility.yul\":780:786   */\n      dup2\n        /* \"#utility.yul\":767:787   */\n      calldataload\n        /* \"#utility.yul\":758:787   */\n      swap1\n      pop\n        /* \"#utility.yul\":796:829   */\n      tag_125\n        /* \"#utility.yul\":823:828   */\n      dup2\n        /* \"#utility.yul\":796:829   */\n      tag_65\n      jump\t// in\n    tag_125:\n        /* \"#utility.yul\":696:835   */\n      swap3\n      swap2\n      pop\n      pop\n      jump\t// out\n        /* \"#utility.yul\":841:918   */\n    tag_67:\n        /* \"#utility.yul\":878:885   */\n      0x00\n        /* \"#utility.yul\":907:912   */\n      dup2\n        /* \"#utility.yul\":896:912   */\n      swap1\n      pop\n        /* \"#utility.yul\":841:918   */\n      swap2\n      swap1\n      pop\n      jump\t// out\n        /* \"#utility.yul\":924:1046   */\n    tag_68:\n        /* \"#utility.yul\":997:1021   */\n      tag_128\n        /* \"#utility.yul\":1015:1020   */\n      dup2\n        /* \"#utility.yul\":997:1021   */\n      tag_67\n      jump\t// in\n    tag_128:\n        /* \"#utility.yul\":990:995   */\n      dup2\n        /* \"#utility.yul\":987:1022   */\n      eq\n        /* \"#utility.yul\":977:1040   */\n      tag_129\n      jumpi\n        /* \"#utility.yul\":1036:1037   */\n      0x00\n        /* \"#utility.yul\":1033:1034   */\n      dup1\n        /* \"#utility.yul\":1026:1038   */\n      revert\n        /* \"#utility.yul\":977:1040   */\n    tag_129:\n        /* \"#utility.yul\":924:1046   */\n      pop\n      jump\t// out\n        /* \"#utility.yul\":1052:1191   */\n    tag_69:\n        /* \"#utility.yul\":1098:1103   */\n      0x00\n        /* \"#utility.yul\":1136:1142   */\n      dup2\n        /* \"#utility.yul\":1123:1143   */\n      calldataload\n        /* \"#utility.yul\":1114:1143   */\n      swap1\n      pop\n        /* \"#utility.yul\":1152:1185   */\n      tag_131\n        /* \"#utility.yul\":1179:1184   */\n      dup2\n        /* \"#utility.yul\":1152:1185   */\n      tag_68\n      jump\t// in\n    tag_131:\n        /* \"#utility.yul\":1052:1191   */\n      swap3\n      swap2\n      pop\n      pop\n      jump\t// out\n        /* \"#utility.yul\":1197:1671   */\n    tag_9:\n        /* \"#utility.yul\":1265:1271   */\n      0x00\n        /* \"#utility.yul\":1273:1279   */\n      dup1\n        /* \"#utility.yul\":1322:1324   */\n      0x40\n        /* \"#utility.yul\":1310:1319   */\n      dup4\n        /* \"#utility.yul\":1301:1308   */\n      dup6\n        /* \"#utility.yul\":1297:1320   */\n      sub\n        /* \"#utility.yul\":1293:1325   */\n      slt\n        /* \"#utility.yul\":1290:1409   */\n      iszero\n      tag_133\n      jumpi\n        /* \"#utility.yul\":1328:1407   */\n      tag_134\n      tag_61\n      jump\t// in\n    tag_134:\n        /* \"#utility.yul\":1290:1409   */\n    tag_133:\n        /* \"#utility.yul\":1448:1449   */\n      0x00\n        /* \"#utility.yul\":1473:1526   */\n      tag_135\n        /* \"#utility.yul\":1518:1525   */\n      dup6\n        /* \"#utility.yul\":1509:1515   */\n      dup3\n        /* \"#utility.yul\":1498:1507   */\n      dup7\n        /* \"#utility.yul\":1494:1516   */\n      add\n        /* \"#utility.yul\":1473:1526   */\n      tag_66\n      jump\t// in\n    tag_135:\n        /* \"#utility.yul\":1463:1526   */\n      swap3\n      pop\n        /* \"#utility.yul\":1419:1536   */\n      pop\n        /* \"#utility.yul\":1575:1577   */\n      0x20\n        /* \"#utility.yul\":1601:1654   */\n      tag_136\n        /* \"#utility.yul\":1646:1653   */\n      dup6\n        /* \"#utility.yul\":1637:1643   */\n      dup3\n        /* \"#utility.yul\":1626:1635   */\n      dup7\n        /* \"#utility.yul\":1622:1644   */\n      add\n        /* \"#utility.yul\":1601:1654   */\n      tag_69\n      jump\t// in\n    tag_136:\n        /* \"#utility.yul\":1591:1654   */\n      swap2\n      pop\n        /* \"#utility.yul\":1546:1664   */\n      pop\n        /* \"#utility.yul\":1197:1671   */\n      swap3\n      pop\n      swap3\n      swap1\n      pop\n      jump\t// out\n        /* \"#utility.yul\":1677:1795   */\n    tag_70:\n        /* \"#utility.yul\":1764:1788   */\n      tag_138\n        /* \"#utility.yul\":1782:1787   */\n      dup2\n        /* \"#utility.yul\":1764:1788   */\n      tag_64\n      jump\t// in\n    tag_138:\n        /* \"#utility.yul\":1759:1762   */\n      dup3\n        /* \"#utility.yul\":1752:1789   */\n      mstore\n        /* \"#utility.yul\":1677:1795   */\n      pop\n      pop\n      jump\t// out\n        /* \"#utility.yul\":1801:1900   */\n    tag_71:\n        /* \"#utility.yul\":1853:1859   */\n      0x00\n        /* \"#utility.yul\":1887:1892   */\n      dup2\n        /* \"#utility.yul\":1881:1893   */\n      mload\n        /* \"#utility.yul\":1871:1893   */\n      swap1\n      pop\n        /* \"#utility.yul\":1801:1900   */\n      swap2\n      swap1\n      pop\n      jump\t// out\n        /* \"#utility.yul\":1906:2075   */\n    tag_72:\n        /* \"#utility.yul\":1990:2001   */\n      0x00\n        /* \"#utility.yul\":2024:2030   */\n      dup3\n        /* \"#utility.yul\":2019:2022   */\n      dup3\n        /* \"#utility.yul\":2012:2031   */\n      mstore\n        /* \"#utility.yul\":2064:2068   */\n      0x20\n        /* \"#utility.yul\":2059:2062   */\n      dup3\n        /* \"#utility.yul\":2055:2069   */\n      add\n        /* \"#utility.yul\":2040:2069   */\n      swap1\n      pop\n        /* \"#utility.yul\":1906:2075   */\n      swap3\n      swap2\n      pop\n      pop\n      jump\t// out\n        /* \"#utility.yul\":2081:2220   */\n    tag_73:\n        /* \"#utility.yul\":2170:2176   */\n      dup3\n        /* \"#utility.yul\":2165:2168   */\n      dup2\n        /* \"#utility.yul\":2160:2163   */\n      dup4\n        /* \"#utility.yul\":2154:2177   */\n      mcopy\n        /* \"#utility.yul\":2211:2212   */\n      0x00\n        /* \"#utility.yul\":2202:2208   */\n      dup4\n        /* \"#utility.yul\":2197:2200   */\n      dup4\n        /* \"#utility.yul\":2193:2209   */\n      add\n        /* \"#utility.yul\":2186:2213   */\n      mstore\n        /* \"#utility.yul\":2081:2220   */\n      pop\n      pop\n      pop\n      jump\t// out\n        /* \"#utility.yul\":2226:2328   */\n    tag_74:\n        /* \"#utility.yul\":2267:2273   */\n      0x00\n        /* \"#utility.yul\":2318:2320   */\n      0x1f\n        /* \"#utility.yul\":2314:2321   */\n      not\n        /* \"#utility.yul\":2309:2311   */\n      0x1f\n        /* \"#utility.yul\":2302:2307   */\n      dup4\n        /* \"#utility.yul\":2298:2312   */\n      add\n        /* \"#utility.yul\":2294:2322   */\n      and\n        /* \"#utility.yul\":2284:2322   */\n      swap1\n      pop\n        /* \"#utility.yul\":2226:2328   */\n      swap2\n      swap1\n      pop\n      jump\t// out\n        /* \"#utility.yul\":2334:2711   */\n    tag_75:\n        /* \"#utility.yul\":2422:2425   */\n      0x00\n        /* \"#utility.yul\":2450:2489   */\n      tag_144\n        /* \"#utility.yul\":2483:2488   */\n      dup3\n        /* \"#utility.yul\":2450:2489   */\n      tag_71\n      jump\t// in\n    tag_144:\n        /* \"#utility.yul\":2505:2576   */\n      tag_145\n        /* \"#utility.yul\":2569:2575   */\n      dup2\n        /* \"#utility.yul\":2564:2567   */\n      dup6\n        /* \"#utility.yul\":2505:2576   */\n      tag_72\n      jump\t// in\n    tag_145:\n        /* \"#utility.yul\":2498:2576   */\n      swap4\n      pop\n        /* \"#utility.yul\":2585:2650   */\n      tag_146\n        /* \"#utility.yul\":2643:2649   */\n      dup2\n        /* \"#utility.yul\":2638:2641   */\n      dup6\n        /* \"#utility.yul\":2631:2635   */\n      0x20\n        /* \"#utility.yul\":2624:2629   */\n      dup7\n        /* \"#utility.yul\":2620:2636   */\n      add\n        /* \"#utility.yul\":2585:2650   */\n      tag_73\n      jump\t// in\n    tag_146:\n        /* \"#utility.yul\":2675:2704   */\n      tag_147\n        /* \"#utility.yul\":2697:2703   */\n      dup2\n        /* \"#utility.yul\":2675:2704   */\n      tag_74\n      jump\t// in\n    tag_147:\n        /* \"#utility.yul\":2670:2673   */\n      dup5\n        /* \"#utility.yul\":2666:2705   */\n      add\n        /* \"#utility.yul\":2659:2705   */\n      swap2\n      pop\n        /* \"#utility.yul\":2426:2711   */\n      pop\n        /* \"#utility.yul\":2334:2711   */\n      swap3\n      swap2\n      pop\n      pop\n      jump\t// out\n        /* \"#utility.yul\":2717:2835   */\n    tag_76:\n        /* \"#utility.yul\":2804:2828   */\n      tag_149\n        /* \"#utility.yul\":2822:2827   */\n      dup2\n        /* \"#utility.yul\":2804:2828   */\n      tag_67\n      jump\t// in\n    tag_149:\n        /* \"#utility.yul\":2799:2802   */\n      dup3\n        /* \"#utility.yul\":2792:2829   */\n      mstore\n        /* \"#utility.yul\":2717:2835   */\n      pop\n      pop\n      jump\t// out\n        /* \"#utility.yul\":2841:3485   */\n    tag_12:\n        /* \"#utility.yul\":3038:3042   */\n      0x00\n        /* \"#utility.yul\":3076:3079   */\n      0x80\n        /* \"#utility.yul\":3065:3074   */\n      dup3\n        /* \"#utility.yul\":3061:3080   */\n      add\n        /* \"#utility.yul\":3053:3080   */\n      swap1\n      pop\n        /* \"#utility.yul\":3090:3161   */\n      tag_151\n        /* \"#utility.yul\":3158:3159   */\n      0x00\n        /* \"#utility.yul\":3147:3156   */\n      dup4\n        /* \"#utility.yul\":3143:3160   */\n      add\n        /* \"#utility.yul\":3134:3140   */\n      dup8\n        /* \"#utility.yul\":3090:3161   */\n      tag_70\n      jump\t// in\n    tag_151:\n        /* \"#utility.yul\":3208:3217   */\n      dup2\n        /* \"#utility.yul\":3202:3206   */\n      dup2\n        /* \"#utility.yul\":3198:3218   */\n      sub\n        /* \"#utility.yul\":3193:3195   */\n      0x20\n        /* \"#utility.yul\":3182:3191   */\n      dup4\n        /* \"#utility.yul\":3178:3196   */\n      add\n        /* \"#utility.yul\":3171:3219   */\n      mstore\n        /* \"#utility.yul\":3236:3314   */\n      tag_152\n        /* \"#utility.yul\":3309:3313   */\n      dup2\n        /* \"#utility.yul\":3300:3306   */\n      dup7\n        /* \"#utility.yul\":3236:3314   */\n      tag_75\n      jump\t// in\n    tag_152:\n        /* \"#utility.yul\":3228:3314   */\n      swap1\n      pop\n        /* \"#utility.yul\":3324:3396   */\n      tag_153\n        /* \"#utility.yul\":3392:3394   */\n      0x40\n        /* \"#utility.yul\":3381:3390   */\n      dup4\n        /* \"#utility.yul\":3377:3395   */\n      add\n        /* \"#utility.yul\":3368:3374   */\n      dup6\n        /* \"#utility.yul\":3324:3396   */\n      tag_76\n      jump\t// in\n    tag_153:\n        /* \"#utility.yul\":3406:3478   */\n      tag_154\n        /* \"#utility.yul\":3474:3476   */\n      0x60\n        /* \"#utility.yul\":3463:3472   */\n      dup4\n        /* \"#utility.yul\":3459:3477   */\n      add\n        /* \"#utility.yul\":3450:3456   */\n      dup5\n        /* \"#utility.yul\":3406:3478   */\n      tag_76\n      jump\t// in\n    tag_154:\n        /* \"#utility.yul\":2841:3485   */\n      swap6\n      swap5\n      pop\n      pop\n      pop\n      pop\n      pop\n      jump\t// out\n        /* \"#utility.yul\":3491:3626   */\n    tag_77:\n        /* \"#utility.yul\":3579:3585   */\n      0x00\n        /* \"#utility.yul\":3613:3618   */\n      dup2\n        /* \"#utility.yul\":3607:3619   */\n      mload\n        /* \"#utility.yul\":3597:3619   */\n      swap1\n      pop\n        /* \"#utility.yul\":3491:3626   */\n      swap2\n      swap1\n      pop\n      jump\t// out\n        /* \"#utility.yul\":3632:3837   */\n    tag_78:\n        /* \"#utility.yul\":3752:3763   */\n      0x00\n        /* \"#utility.yul\":3786:3792   */\n      dup3\n        /* \"#utility.yul\":3781:3784   */\n      dup3\n        /* \"#utility.yul\":3774:3793   */\n      mstore\n        /* \"#utility.yul\":3826:3830   */\n      0x20\n        /* \"#utility.yul\":3821:3824   */\n      dup3\n        /* \"#utility.yul\":3817:3831   */\n      add\n        /* \"#utility.yul\":3802:3831   */\n      swap1\n      pop\n        /* \"#utility.yul\":3632:3837   */\n      swap3\n      swap2\n      pop\n      pop\n      jump\t// out\n        /* \"#utility.yul\":3843:3996   */\n    tag_79:\n        /* \"#utility.yul\":3931:3935   */\n      0x00\n        /* \"#utility.yul\":3954:3957   */\n      dup2\n        /* \"#utility.yul\":3946:3957   */\n      swap1\n      pop\n        /* \"#utility.yul\":3984:3988   */\n      0x20\n        /* \"#utility.yul\":3979:3982   */\n      dup3\n        /* \"#utility.yul\":3975:3989   */\n      add\n        /* \"#utility.yul\":3967:3989   */\n      swap1\n      pop\n        /* \"#utility.yul\":3843:3996   */\n      swap2\n      swap1\n      pop\n      jump\t// out\n        /* \"#utility.yul\":4002:4110   */\n    tag_80:\n        /* \"#utility.yul\":4079:4103   */\n      tag_159\n        /* \"#utility.yul\":4097:4102   */\n      dup2\n        /* \"#utility.yul\":4079:4103   */\n      tag_64\n      jump\t// in\n    tag_159:\n        /* \"#utility.yul\":4074:4077   */\n      dup3\n        /* \"#utility.yul\":4067:4104   */\n      mstore\n        /* \"#utility.yul\":4002:4110   */\n      pop\n      pop\n      jump\t// out\n        /* \"#utility.yul\":4116:4275   */\n    tag_81:\n        /* \"#utility.yul\":4190:4201   */\n      0x00\n        /* \"#utility.yul\":4224:4230   */\n      dup3\n        /* \"#utility.yul\":4219:4222   */\n      dup3\n        /* \"#utility.yul\":4212:4231   */\n      mstore\n        /* \"#utility.yul\":4264:4268   */\n      0x20\n        /* \"#utility.yul\":4259:4262   */\n      dup3\n        /* \"#utility.yul\":4255:4269   */\n      add\n        /* \"#utility.yul\":4240:4269   */\n      swap1\n      pop\n        /* \"#utility.yul\":4116:4275   */\n      swap3\n      swap2\n      pop\n      pop\n      jump\t// out\n        /* \"#utility.yul\":4281:4638   */\n    tag_82:\n        /* \"#utility.yul\":4359:4362   */\n      0x00\n        /* \"#utility.yul\":4387:4426   */\n      tag_162\n        /* \"#utility.yul\":4420:4425   */\n      dup3\n        /* \"#utility.yul\":4387:4426   */\n      tag_71\n      jump\t// in\n    tag_162:\n        /* \"#utility.yul\":4442:4503   */\n      tag_163\n        /* \"#utility.yul\":4496:4502   */\n      dup2\n        /* \"#utility.yul\":4491:4494   */\n      dup6\n        /* \"#utility.yul\":4442:4503   */\n      tag_81\n      jump\t// in\n    tag_163:\n        /* \"#utility.yul\":4435:4503   */\n      swap4\n      pop\n        /* \"#utility.yul\":4512:4577   */\n      tag_164\n        /* \"#utility.yul\":4570:4576   */\n      dup2\n        /* \"#utility.yul\":4565:4568   */\n      dup6\n        /* \"#utility.yul\":4558:4562   */\n      0x20\n        /* \"#utility.yul\":4551:4556   */\n      dup7\n        /* \"#utility.yul\":4547:4563   */\n      add\n        /* \"#utility.yul\":4512:4577   */\n      tag_73\n      jump\t// in\n    tag_164:\n        /* \"#utility.yul\":4602:4631   */\n      tag_165\n        /* \"#utility.yul\":4624:4630   */\n      dup2\n        /* \"#utility.yul\":4602:4631   */\n      tag_74\n      jump\t// in\n    tag_165:\n        /* \"#utility.yul\":4597:4600   */\n      dup5\n        /* \"#utility.yul\":4593:4632   */\n      add\n        /* \"#utility.yul\":4586:4632   */\n      swap2\n      pop\n        /* \"#utility.yul\":4363:4638   */\n      pop\n        /* \"#utility.yul\":4281:4638   */\n      swap3\n      swap2\n      pop\n      pop\n      jump\t// out\n        /* \"#utility.yul\":4644:4752   */\n    tag_83:\n        /* \"#utility.yul\":4721:4745   */\n      tag_167\n        /* \"#utility.yul\":4739:4744   */\n      dup2\n        /* \"#utility.yul\":4721:4745   */\n      tag_67\n      jump\t// in\n    tag_167:\n        /* \"#utility.yul\":4716:4719   */\n      dup3\n        /* \"#utility.yul\":4709:4746   */\n      mstore\n        /* \"#utility.yul\":4644:4752   */\n      pop\n      pop\n      jump\t// out\n        /* \"#utility.yul\":4810:5757   */\n    tag_84:\n        /* \"#utility.yul\":4911:4914   */\n      0x00\n        /* \"#utility.yul\":4947:4951   */\n      0x80\n        /* \"#utility.yul\":4942:4945   */\n      dup4\n        /* \"#utility.yul\":4938:4952   */\n      add\n        /* \"#utility.yul\":5036:5040   */\n      0x00\n        /* \"#utility.yul\":5029:5034   */\n      dup4\n        /* \"#utility.yul\":5025:5041   */\n      add\n        /* \"#utility.yul\":5019:5042   */\n      mload\n        /* \"#utility.yul\":5055:5118   */\n      tag_169\n        /* \"#utility.yul\":5112:5116   */\n      0x00\n        /* \"#utility.yul\":5107:5110   */\n      dup7\n        /* \"#utility.yul\":5103:5117   */\n      add\n        /* \"#utility.yul\":5089:5101   */\n      dup3\n        /* \"#utility.yul\":5055:5118   */\n      tag_80\n      jump\t// in\n    tag_169:\n        /* \"#utility.yul\":4962:5128   */\n      pop\n        /* \"#utility.yul\":5213:5217   */\n      0x20\n        /* \"#utility.yul\":5206:5211   */\n      dup4\n        /* \"#utility.yul\":5202:5218   */\n      add\n        /* \"#utility.yul\":5196:5219   */\n      mload\n        /* \"#utility.yul\":5266:5269   */\n      dup5\n        /* \"#utility.yul\":5260:5264   */\n      dup3\n        /* \"#utility.yul\":5256:5270   */\n      sub\n        /* \"#utility.yul\":5249:5253   */\n      0x20\n        /* \"#utility.yul\":5244:5247   */\n      dup7\n        /* \"#utility.yul\":5240:5254   */\n      add\n        /* \"#utility.yul\":5233:5271   */\n      mstore\n        /* \"#utility.yul\":5292:5365   */\n      tag_170\n        /* \"#utility.yul\":5360:5364   */\n      dup3\n        /* \"#utility.yul\":5346:5358   */\n      dup3\n        /* \"#utility.yul\":5292:5365   */\n      tag_82\n      jump\t// in\n    tag_170:\n        /* \"#utility.yul\":5284:5365   */\n      swap2\n      pop\n        /* \"#utility.yul\":5138:5376   */\n      pop\n        /* \"#utility.yul\":5463:5467   */\n      0x40\n        /* \"#utility.yul\":5456:5461   */\n      dup4\n        /* \"#utility.yul\":5452:5468   */\n      add\n        /* \"#utility.yul\":5446:5469   */\n      mload\n        /* \"#utility.yul\":5482:5545   */\n      tag_171\n        /* \"#utility.yul\":5539:5543   */\n      0x40\n        /* \"#utility.yul\":5534:5537   */\n      dup7\n        /* \"#utility.yul\":5530:5544   */\n      add\n        /* \"#utility.yul\":5516:5528   */\n      dup3\n        /* \"#utility.yul\":5482:5545   */\n      tag_83\n      jump\t// in\n    tag_171:\n        /* \"#utility.yul\":5386:5555   */\n      pop\n        /* \"#utility.yul\":5638:5642   */\n      0x60\n        /* \"#utility.yul\":5631:5636   */\n      dup4\n        /* \"#utility.yul\":5627:5643   */\n      add\n        /* \"#utility.yul\":5621:5644   */\n      mload\n        /* \"#utility.yul\":5657:5720   */\n      tag_172\n        /* \"#utility.yul\":5714:5718   */\n      0x60\n        /* \"#utility.yul\":5709:5712   */\n      dup7\n        /* \"#utility.yul\":5705:5719   */\n      add\n        /* \"#utility.yul\":5691:5703   */\n      dup3\n        /* \"#utility.yul\":5657:5720   */\n      tag_83\n      jump\t// in\n    tag_172:\n        /* \"#utility.yul\":5565:5730   */\n      pop\n        /* \"#utility.yul\":5747:5751   */\n      dup1\n        /* \"#utility.yul\":5740:5751   */\n      swap2\n      pop\n        /* \"#utility.yul\":4916:5757   */\n      pop\n        /* \"#utility.yul\":4810:5757   */\n      swap3\n      swap2\n      pop\n      pop\n      jump\t// out\n        /* \"#utility.yul\":5763:6003   */\n    tag_85:\n        /* \"#utility.yul\":5874:5884   */\n      0x00\n        /* \"#utility.yul\":5909:5997   */\n      tag_174\n        /* \"#utility.yul\":5993:5996   */\n      dup4\n        /* \"#utility.yul\":5985:5991   */\n      dup4\n        /* \"#utility.yul\":5909:5997   */\n      tag_84\n      jump\t// in\n    tag_174:\n        /* \"#utility.yul\":5895:5997   */\n      swap1\n      pop\n        /* \"#utility.yul\":5763:6003   */\n      swap3\n      swap2\n      pop\n      pop\n      jump\t// out\n        /* \"#utility.yul\":6009:6143   */\n    tag_86:\n        /* \"#utility.yul\":6100:6104   */\n      0x00\n        /* \"#utility.yul\":6132:6136   */\n      0x20\n        /* \"#utility.yul\":6127:6130   */\n      dup3\n        /* \"#utility.yul\":6123:6137   */\n      add\n        /* \"#utility.yul\":6115:6137   */\n      swap1\n      pop\n        /* \"#utility.yul\":6009:6143   */\n      swap2\n      swap1\n      pop\n      jump\t// out\n        /* \"#utility.yul\":6205:7284   */\n    tag_87:\n        /* \"#utility.yul\":6366:6369   */\n      0x00\n        /* \"#utility.yul\":6395:6470   */\n      tag_177\n        /* \"#utility.yul\":6464:6469   */\n      dup3\n        /* \"#utility.yul\":6395:6470   */\n      tag_77\n      jump\t// in\n    tag_177:\n        /* \"#utility.yul\":6486:6593   */\n      tag_178\n        /* \"#utility.yul\":6586:6592   */\n      dup2\n        /* \"#utility.yul\":6581:6584   */\n      dup6\n        /* \"#utility.yul\":6486:6593   */\n      tag_78\n      jump\t// in\n    tag_178:\n        /* \"#utility.yul\":6479:6593   */\n      swap4\n      pop\n        /* \"#utility.yul\":6619:6622   */\n      dup4\n        /* \"#utility.yul\":6664:6668   */\n      0x20\n        /* \"#utility.yul\":6656:6662   */\n      dup3\n        /* \"#utility.yul\":6652:6669   */\n      mul\n        /* \"#utility.yul\":6647:6650   */\n      dup6\n        /* \"#utility.yul\":6643:6670   */\n      add\n        /* \"#utility.yul\":6694:6771   */\n      tag_179\n        /* \"#utility.yul\":6765:6770   */\n      dup6\n        /* \"#utility.yul\":6694:6771   */\n      tag_79\n      jump\t// in\n    tag_179:\n        /* \"#utility.yul\":6794:6801   */\n      dup1\n        /* \"#utility.yul\":6825:6826   */\n      0x00\n        /* \"#utility.yul\":6810:7239   */\n    tag_180:\n        /* \"#utility.yul\":6835:6841   */\n      dup6\n        /* \"#utility.yul\":6832:6833   */\n      dup2\n        /* \"#utility.yul\":6829:6842   */\n      lt\n        /* \"#utility.yul\":6810:7239   */\n      iszero\n      tag_182\n      jumpi\n        /* \"#utility.yul\":6906:6915   */\n      dup5\n        /* \"#utility.yul\":6900:6904   */\n      dup5\n        /* \"#utility.yul\":6896:6916   */\n      sub\n        /* \"#utility.yul\":6891:6894   */\n      dup10\n        /* \"#utility.yul\":6884:6917   */\n      mstore\n        /* \"#utility.yul\":6957:6963   */\n      dup2\n        /* \"#utility.yul\":6951:6964   */\n      mload\n        /* \"#utility.yul\":6985:7091   */\n      tag_183\n        /* \"#utility.yul\":7086:7090   */\n      dup6\n        /* \"#utility.yul\":7071:7084   */\n      dup3\n        /* \"#utility.yul\":6985:7091   */\n      tag_85\n      jump\t// in\n    tag_183:\n        /* \"#utility.yul\":6977:7091   */\n      swap5\n      pop\n        /* \"#utility.yul\":7114:7195   */\n      tag_184\n        /* \"#utility.yul\":7188:7194   */\n      dup4\n        /* \"#utility.yul\":7114:7195   */\n      tag_86\n      jump\t// in\n    tag_184:\n        /* \"#utility.yul\":7104:7195   */\n      swap3\n      pop\n        /* \"#utility.yul\":7224:7228   */\n      0x20\n        /* \"#utility.yul\":7219:7222   */\n      dup11\n        /* \"#utility.yul\":7215:7229   */\n      add\n        /* \"#utility.yul\":7208:7229   */\n      swap10\n      pop\n        /* \"#utility.yul\":6870:7239   */\n      pop\n        /* \"#utility.yul\":6857:6858   */\n      0x01\n        /* \"#utility.yul\":6854:6855   */\n      dup2\n        /* \"#utility.yul\":6850:6859   */\n      add\n        /* \"#utility.yul\":6845:6859   */\n      swap1\n      pop\n        /* \"#utility.yul\":6810:7239   */\n      jump(tag_180)\n    tag_182:\n        /* \"#utility.yul\":6814:6828   */\n      pop\n        /* \"#utility.yul\":7255:7259   */\n      dup3\n        /* \"#utility.yul\":7248:7259   */\n      swap8\n      pop\n        /* \"#utility.yul\":7275:7278   */\n      dup8\n        /* \"#utility.yul\":7268:7278   */\n      swap6\n      pop\n        /* \"#utility.yul\":6371:7284   */\n      pop\n      pop\n      pop\n      pop\n      pop\n        /* \"#utility.yul\":6205:7284   */\n      swap3\n      swap2\n      pop\n      pop\n      jump\t// out\n        /* \"#utility.yul\":7290:7747   */\n    tag_16:\n        /* \"#utility.yul\":7475:7479   */\n      0x00\n        /* \"#utility.yul\":7513:7515   */\n      0x20\n        /* \"#utility.yul\":7502:7511   */\n      dup3\n        /* \"#utility.yul\":7498:7516   */\n      add\n        /* \"#utility.yul\":7490:7516   */\n      swap1\n      pop\n        /* \"#utility.yul\":7562:7571   */\n      dup2\n        /* \"#utility.yul\":7556:7560   */\n      dup2\n        /* \"#utility.yul\":7552:7572   */\n      sub\n        /* \"#utility.yul\":7548:7549   */\n      0x00\n        /* \"#utility.yul\":7537:7546   */\n      dup4\n        /* \"#utility.yul\":7533:7550   */\n      add\n        /* \"#utility.yul\":7526:7573   */\n      mstore\n        /* \"#utility.yul\":7590:7740   */\n      tag_186\n        /* \"#utility.yul\":7735:7739   */\n      dup2\n        /* \"#utility.yul\":7726:7732   */\n      dup5\n        /* \"#utility.yul\":7590:7740   */\n      tag_87\n      jump\t// in\n    tag_186:\n        /* \"#utility.yul\":7582:7740   */\n      swap1\n      pop\n        /* \"#utility.yul\":7290:7747   */\n      swap3\n      swap2\n      pop\n      pop\n      jump\t// out\n        /* \"#utility.yul\":7753:7870   */\n    tag_88:\n        /* \"#utility.yul\":7862:7863   */\n      0x00\n        /* \"#utility.yul\":7859:7860   */\n      dup1\n        /* \"#utility.yul\":7852:7864   */\n      revert\n        /* \"#utility.yul\":7876:7993   */\n    tag_89:\n        /* \"#utility.yul\":7985:7986   */\n      0x00\n        /* \"#utility.yul\":7982:7983   */\n      dup1\n        /* \"#utility.yul\":7975:7987   */\n      revert\n        /* \"#utility.yul\":7999:8179   */\n    tag_90:\n        /* \"#utility.yul\":8047:8124   */\n      0x4e487b7100000000000000000000000000000000000000000000000000000000\n        /* \"#utility.yul\":8044:8045   */\n      0x00\n        /* \"#utility.yul\":8037:8125   */\n      mstore\n        /* \"#utility.yul\":8144:8148   */\n      0x41\n        /* \"#utility.yul\":8141:8142   */\n      0x04\n        /* \"#utility.yul\":8134:8149   */\n      mstore\n        /* \"#utility.yul\":8168:8172   */\n      0x24\n        /* \"#utility.yul\":8165:8166   */\n      0x00\n        /* \"#utility.yul\":8158:8173   */\n      revert\n        /* \"#utility.yul\":8185:8466   */\n    tag_91:\n        /* \"#utility.yul\":8268:8295   */\n      tag_191\n        /* \"#utility.yul\":8290:8294   */\n      dup3\n        /* \"#utility.yul\":8268:8295   */\n      tag_74\n      jump\t// in\n    tag_191:\n        /* \"#utility.yul\":8260:8266   */\n      dup2\n        /* \"#utility.yul\":8256:8296   */\n      add\n        /* \"#utility.yul\":8398:8404   */\n      dup2\n        /* \"#utility.yul\":8386:8396   */\n      dup2\n        /* \"#utility.yul\":8383:8405   */\n      lt\n        /* \"#utility.yul\":8362:8380   */\n      0xffffffffffffffff\n        /* \"#utility.yul\":8350:8360   */\n      dup3\n        /* \"#utility.yul\":8347:8381   */\n      gt\n        /* \"#utility.yul\":8344:8406   */\n      or\n        /* \"#utility.yul\":8341:8429   */\n      iszero\n      tag_192\n      jumpi\n        /* \"#utility.yul\":8409:8427   */\n      tag_193\n      tag_90\n      jump\t// in\n    tag_193:\n        /* \"#utility.yul\":8341:8429   */\n    tag_192:\n        /* \"#utility.yul\":8449:8459   */\n      dup1\n        /* \"#utility.yul\":8445:8447   */\n      0x40\n        /* \"#utility.yul\":8438:8460   */\n      mstore\n        /* \"#utility.yul\":8228:8466   */\n      pop\n        /* \"#utility.yul\":8185:8466   */\n      pop\n      pop\n      jump\t// out\n        /* \"#utility.yul\":8472:8601   */\n    tag_92:\n        /* \"#utility.yul\":8506:8512   */\n      0x00\n        /* \"#utility.yul\":8533:8553   */\n      tag_195\n      tag_60\n      jump\t// in\n    tag_195:\n        /* \"#utility.yul\":8523:8553   */\n      swap1\n      pop\n        /* \"#utility.yul\":8562:8595   */\n      tag_196\n        /* \"#utility.yul\":8590:8594   */\n      dup3\n        /* \"#utility.yul\":8582:8588   */\n      dup3\n        /* \"#utility.yul\":8562:8595   */\n      tag_91\n      jump\t// in\n    tag_196:\n        /* \"#utility.yul\":8472:8601   */\n      swap2\n      swap1\n      pop\n      jump\t// out\n        /* \"#utility.yul\":8607:8915   */\n    tag_93:\n        /* \"#utility.yul\":8669:8673   */\n      0x00\n        /* \"#utility.yul\":8759:8777   */\n      0xffffffffffffffff\n        /* \"#utility.yul\":8751:8757   */\n      dup3\n        /* \"#utility.yul\":8748:8778   */\n      gt\n        /* \"#utility.yul\":8745:8801   */\n      iszero\n      tag_198\n      jumpi\n        /* \"#utility.yul\":8781:8799   */\n      tag_199\n      tag_90\n      jump\t// in\n    tag_199:\n        /* \"#utility.yul\":8745:8801   */\n    tag_198:\n        /* \"#utility.yul\":8819:8848   */\n      tag_200\n        /* \"#utility.yul\":8841:8847   */\n      dup3\n        /* \"#utility.yul\":8819:8848   */\n      tag_74\n      jump\t// in\n    tag_200:\n        /* \"#utility.yul\":8811:8848   */\n      swap1\n      pop\n        /* \"#utility.yul\":8903:8907   */\n      0x20\n        /* \"#utility.yul\":8897:8901   */\n      dup2\n        /* \"#utility.yul\":8893:8908   */\n      add\n        /* \"#utility.yul\":8885:8908   */\n      swap1\n      pop\n        /* \"#utility.yul\":8607:8915   */\n      swap2\n      swap1\n      pop\n      jump\t// out\n        /* \"#utility.yul\":8921:9069   */\n    tag_94:\n        /* \"#utility.yul\":9019:9025   */\n      dup3\n        /* \"#utility.yul\":9014:9017   */\n      dup2\n        /* \"#utility.yul\":9009:9012   */\n      dup4\n        /* \"#utility.yul\":8996:9026   */\n      calldatacopy\n        /* \"#utility.yul\":9060:9061   */\n      0x00\n        /* \"#utility.yul\":9051:9057   */\n      dup4\n        /* \"#utility.yul\":9046:9049   */\n      dup4\n        /* \"#utility.yul\":9042:9058   */\n      add\n        /* \"#utility.yul\":9035:9062   */\n      mstore\n        /* \"#utility.yul\":8921:9069   */\n      pop\n      pop\n      pop\n      jump\t// out\n        /* \"#utility.yul\":9075:9500   */\n    tag_95:\n        /* \"#utility.yul\":9153:9158   */\n      0x00\n        /* \"#utility.yul\":9178:9244   */\n      tag_203\n        /* \"#utility.yul\":9194:9243   */\n      tag_204\n        /* \"#utility.yul\":9236:9242   */\n      dup5\n        /* \"#utility.yul\":9194:9243   */\n      tag_93\n      jump\t// in\n    tag_204:\n        /* \"#utility.yul\":9178:9244   */\n      tag_92\n      jump\t// in\n    tag_203:\n        /* \"#utility.yul\":9169:9244   */\n      swap1\n      pop\n        /* \"#utility.yul\":9267:9273   */\n      dup3\n        /* \"#utility.yul\":9260:9265   */\n      dup2\n        /* \"#utility.yul\":9253:9274   */\n      mstore\n        /* \"#utility.yul\":9305:9309   */\n      0x20\n        /* \"#utility.yul\":9298:9303   */\n      dup2\n        /* \"#utility.yul\":9294:9310   */\n      add\n        /* \"#utility.yul\":9343:9346   */\n      dup5\n        /* \"#utility.yul\":9334:9340   */\n      dup5\n        /* \"#utility.yul\":9329:9332   */\n      dup5\n        /* \"#utility.yul\":9325:9341   */\n      add\n        /* \"#utility.yul\":9322:9347   */\n      gt\n        /* \"#utility.yul\":9319:9431   */\n      iszero\n      tag_205\n      jumpi\n        /* \"#utility.yul\":9350:9429   */\n      tag_206\n      tag_89\n      jump\t// in\n    tag_206:\n        /* \"#utility.yul\":9319:9431   */\n    tag_205:\n        /* \"#utility.yul\":9440:9494   */\n      tag_207\n        /* \"#utility.yul\":9487:9493   */\n      dup5\n        /* \"#utility.yul\":9482:9485   */\n      dup3\n        /* \"#utility.yul\":9477:9480   */\n      dup6\n        /* \"#utility.yul\":9440:9494   */\n      tag_94\n      jump\t// in\n    tag_207:\n        /* \"#utility.yul\":9159:9500   */\n      pop\n        /* \"#utility.yul\":9075:9500   */\n      swap4\n      swap3\n      pop\n      pop\n      pop\n      jump\t// out\n        /* \"#utility.yul\":9520:9860   */\n    tag_96:\n        /* \"#utility.yul\":9576:9581   */\n      0x00\n        /* \"#utility.yul\":9625:9628   */\n      dup3\n        /* \"#utility.yul\":9618:9622   */\n      0x1f\n        /* \"#utility.yul\":9610:9616   */\n      dup4\n        /* \"#utility.yul\":9606:9623   */\n      add\n        /* \"#utility.yul\":9602:9629   */\n      slt\n        /* \"#utility.yul\":9592:9714   */\n      tag_209\n      jumpi\n        /* \"#utility.yul\":9633:9712   */\n      tag_210\n      tag_88\n      jump\t// in\n    tag_210:\n        /* \"#utility.yul\":9592:9714   */\n    tag_209:\n        /* \"#utility.yul\":9750:9756   */\n      dup2\n        /* \"#utility.yul\":9737:9757   */\n      calldataload\n        /* \"#utility.yul\":9775:9854   */\n      tag_211\n        /* \"#utility.yul\":9850:9853   */\n      dup5\n        /* \"#utility.yul\":9842:9848   */\n      dup3\n        /* \"#utility.yul\":9835:9839   */\n      0x20\n        /* \"#utility.yul\":9827:9833   */\n      dup7\n        /* \"#utility.yul\":9823:9840   */\n      add\n        /* \"#utility.yul\":9775:9854   */\n      tag_95\n      jump\t// in\n    tag_211:\n        /* \"#utility.yul\":9766:9854   */\n      swap2\n      pop\n        /* \"#utility.yul\":9582:9860   */\n      pop\n        /* \"#utility.yul\":9520:9860   */\n      swap3\n      swap2\n      pop\n      pop\n      jump\t// out\n        /* \"#utility.yul\":9866:10375   */\n    tag_19:\n        /* \"#utility.yul\":9935:9941   */\n      0x00\n        /* \"#utility.yul\":9984:9986   */\n      0x20\n        /* \"#utility.yul\":9972:9981   */\n      dup3\n        /* \"#utility.yul\":9963:9970   */\n      dup5\n        /* \"#utility.yul\":9959:9982   */\n      sub\n        /* \"#utility.yul\":9955:9987   */\n      slt\n        /* \"#utility.yul\":9952:10071   */\n      iszero\n      tag_213\n      jumpi\n        /* \"#utility.yul\":9990:10069   */\n      tag_214\n      tag_61\n      jump\t// in\n    tag_214:\n        /* \"#utility.yul\":9952:10071   */\n    tag_213:\n        /* \"#utility.yul\":10138:10139   */\n      0x00\n        /* \"#utility.yul\":10127:10136   */\n      dup3\n        /* \"#utility.yul\":10123:10140   */\n      add\n        /* \"#utility.yul\":10110:10141   */\n      calldataload\n        /* \"#utility.yul\":10168:10186   */\n      0xffffffffffffffff\n        /* \"#utility.yul\":10160:10166   */\n      dup2\n        /* \"#utility.yul\":10157:10187   */\n      gt\n        /* \"#utility.yul\":10154:10271   */\n      iszero\n      tag_215\n      jumpi\n        /* \"#utility.yul\":10190:10269   */\n      tag_216\n      tag_62\n      jump\t// in\n    tag_216:\n        /* \"#utility.yul\":10154:10271   */\n    tag_215:\n        /* \"#utility.yul\":10295:10358   */\n      tag_217\n        /* \"#utility.yul\":10350:10357   */\n      dup5\n        /* \"#utility.yul\":10341:10347   */\n      dup3\n        /* \"#utility.yul\":10330:10339   */\n      dup6\n        /* \"#utility.yul\":10326:10348   */\n      add\n        /* \"#utility.yul\":10295:10358   */\n      tag_96\n      jump\t// in\n    tag_217:\n        /* \"#utility.yul\":10285:10358   */\n      swap2\n      pop\n        /* \"#utility.yul\":10081:10368   */\n      pop\n        /* \"#utility.yul\":9866:10375   */\n      swap3\n      swap2\n      pop\n      pop\n      jump\t// out\n        /* \"#utility.yul\":10381:10710   */\n    tag_23:\n        /* \"#utility.yul\":10440:10446   */\n      0x00\n        /* \"#utility.yul\":10489:10491   */\n      0x20\n        /* \"#utility.yul\":10477:10486   */\n      dup3\n        /* \"#utility.yul\":10468:10475   */\n      dup5\n        /* \"#utility.yul\":10464:10487   */\n      sub\n        /* \"#utility.yul\":10460:10492   */\n      slt\n        /* \"#utility.yul\":10457:10576   */\n      iszero\n      tag_219\n      jumpi\n        /* \"#utility.yul\":10495:10574   */\n      tag_220\n      tag_61\n      jump\t// in\n    tag_220:\n        /* \"#utility.yul\":10457:10576   */\n    tag_219:\n        /* \"#utility.yul\":10615:10616   */\n      0x00\n        /* \"#utility.yul\":10640:10693   */\n      tag_221\n        /* \"#utility.yul\":10685:10692   */\n      dup5\n        /* \"#utility.yul\":10676:10682   */\n      dup3\n        /* \"#utility.yul\":10665:10674   */\n      dup6\n        /* \"#utility.yul\":10661:10683   */\n      add\n        /* \"#utility.yul\":10640:10693   */\n      tag_69\n      jump\t// in\n    tag_221:\n        /* \"#utility.yul\":10630:10693   */\n      swap2\n      pop\n        /* \"#utility.yul\":10586:10703   */\n      pop\n        /* \"#utility.yul\":10381:10710   */\n      swap3\n      swap2\n      pop\n      pop\n      jump\t// out\n        /* \"#utility.yul\":10768:11725   */\n    tag_97:\n        /* \"#utility.yul\":10879:10882   */\n      0x00\n        /* \"#utility.yul\":10915:10919   */\n      0x80\n        /* \"#utility.yul\":10910:10913   */\n      dup4\n        /* \"#utility.yul\":10906:10920   */\n      add\n        /* \"#utility.yul\":11004:11008   */\n      0x00\n        /* \"#utility.yul\":10997:11002   */\n      dup4\n        /* \"#utility.yul\":10993:11009   */\n      add\n        /* \"#utility.yul\":10987:11010   */\n      mload\n        /* \"#utility.yul\":11023:11086   */\n      tag_223\n        /* \"#utility.yul\":11080:11084   */\n      0x00\n        /* \"#utility.yul\":11075:11078   */\n      dup7\n        /* \"#utility.yul\":11071:11085   */\n      add\n        /* \"#utility.yul\":11057:11069   */\n      dup3\n        /* \"#utility.yul\":11023:11086   */\n      tag_80\n      jump\t// in\n    tag_223:\n        /* \"#utility.yul\":10930:11096   */\n      pop\n        /* \"#utility.yul\":11181:11185   */\n      0x20\n        /* \"#utility.yul\":11174:11179   */\n      dup4\n        /* \"#utility.yul\":11170:11186   */\n      add\n        /* \"#utility.yul\":11164:11187   */\n      mload\n        /* \"#utility.yul\":11234:11237   */\n      dup5\n        /* \"#utility.yul\":11228:11232   */\n      dup3\n        /* \"#utility.yul\":11224:11238   */\n      sub\n        /* \"#utility.yul\":11217:11221   */\n      0x20\n        /* \"#utility.yul\":11212:11215   */\n      dup7\n        /* \"#utility.yul\":11208:11222   */\n      add\n        /* \"#utility.yul\":11201:11239   */\n      mstore\n        /* \"#utility.yul\":11260:11333   */\n      tag_224\n        /* \"#utility.yul\":11328:11332   */\n      dup3\n        /* \"#utility.yul\":11314:11326   */\n      dup3\n        /* \"#utility.yul\":11260:11333   */\n      tag_82\n      jump\t// in\n    tag_224:\n        /* \"#utility.yul\":11252:11333   */\n      swap2\n      pop\n        /* \"#utility.yul\":11106:11344   */\n      pop\n        /* \"#utility.yul\":11431:11435   */\n      0x40\n        /* \"#utility.yul\":11424:11429   */\n      dup4\n        /* \"#utility.yul\":11420:11436   */\n      add\n        /* \"#utility.yul\":11414:11437   */\n      mload\n        /* \"#utility.yul\":11450:11513   */\n      tag_225\n        /* \"#utility.yul\":11507:11511   */\n      0x40\n        /* \"#utility.yul\":11502:11505   */\n      dup7\n        /* \"#utility.yul\":11498:11512   */\n      add\n        /* \"#utility.yul\":11484:11496   */\n      dup3\n        /* \"#utility.yul\":11450:11513   */\n      tag_83\n      jump\t// in\n    tag_225:\n        /* \"#utility.yul\":11354:11523   */\n      pop\n        /* \"#utility.yul\":11606:11610   */\n      0x60\n        /* \"#utility.yul\":11599:11604   */\n      dup4\n        /* \"#utility.yul\":11595:11611   */\n      add\n        /* \"#utility.yul\":11589:11612   */\n      mload\n        /* \"#utility.yul\":11625:11688   */\n      tag_226\n        /* \"#utility.yul\":11682:11686   */\n      0x60\n        /* \"#utility.yul\":11677:11680   */\n      dup7\n        /* \"#utility.yul\":11673:11687   */\n      add\n        /* \"#utility.yul\":11659:11671   */\n      dup3\n        /* \"#utility.yul\":11625:11688   */\n      tag_83\n      jump\t// in\n    tag_226:\n        /* \"#utility.yul\":11533:11698   */\n      pop\n        /* \"#utility.yul\":11715:11719   */\n      dup1\n        /* \"#utility.yul\":11708:11719   */\n      swap2\n      pop\n        /* \"#utility.yul\":10884:11725   */\n      pop\n        /* \"#utility.yul\":10768:11725   */\n      swap3\n      swap2\n      pop\n      pop\n      jump\t// out\n        /* \"#utility.yul\":11731:12088   */\n    tag_26:\n        /* \"#utility.yul\":11866:11870   */\n      0x00\n        /* \"#utility.yul\":11904:11906   */\n      0x20\n        /* \"#utility.yul\":11893:11902   */\n      dup3\n        /* \"#utility.yul\":11889:11907   */\n      add\n        /* \"#utility.yul\":11881:11907   */\n      swap1\n      pop\n        /* \"#utility.yul\":11953:11962   */\n      dup2\n        /* \"#utility.yul\":11947:11951   */\n      dup2\n        /* \"#utility.yul\":11943:11963   */\n      sub\n        /* \"#utility.yul\":11939:11940   */\n      0x00\n        /* \"#utility.yul\":11928:11937   */\n      dup4\n        /* \"#utility.yul\":11924:11941   */\n      add\n        /* \"#utility.yul\":11917:11964   */\n      mstore\n        /* \"#utility.yul\":11981:12081   */\n      tag_228\n        /* \"#utility.yul\":12076:12080   */\n      dup2\n        /* \"#utility.yul\":12067:12073   */\n      dup5\n        /* \"#utility.yul\":11981:12081   */\n      tag_97\n      jump\t// in\n    tag_228:\n        /* \"#utility.yul\":11973:12081   */\n      swap1\n      pop\n        /* \"#utility.yul\":11731:12088   */\n      swap3\n      swap2\n      pop\n      pop\n      jump\t// out\n        /* \"#utility.yul\":12094:12274   */\n    tag_98:\n        /* \"#utility.yul\":12142:12219   */\n      0x4e487b7100000000000000000000000000000000000000000000000000000000\n        /* \"#utility.yul\":12139:12140   */\n      0x00\n        /* \"#utility.yul\":12132:12220   */\n      mstore\n        /* \"#utility.yul\":12239:12243   */\n      0x22\n        /* \"#utility.yul\":12236:12237   */\n      0x04\n        /* \"#utility.yul\":12229:12244   */\n      mstore\n        /* \"#utility.yul\":12263:12267   */\n      0x24\n        /* \"#utility.yul\":12260:12261   */\n      0x00\n        /* \"#utility.yul\":12253:12268   */\n      revert\n        /* \"#utility.yul\":12280:12600   */\n    tag_30:\n        /* \"#utility.yul\":12324:12330   */\n      0x00\n        /* \"#utility.yul\":12361:12362   */\n      0x02\n        /* \"#utility.yul\":12355:12359   */\n      dup3\n        /* \"#utility.yul\":12351:12363   */\n      div\n        /* \"#utility.yul\":12341:12363   */\n      swap1\n      pop\n        /* \"#utility.yul\":12408:12409   */\n      0x01\n        /* \"#utility.yul\":12402:12406   */\n      dup3\n        /* \"#utility.yul\":12398:12410   */\n      and\n        /* \"#utility.yul\":12429:12447   */\n      dup1\n        /* \"#utility.yul\":12419:12500   */\n      tag_231\n      jumpi\n        /* \"#utility.yul\":12485:12489   */\n      0x7f\n        /* \"#utility.yul\":12477:12483   */\n      dup3\n        /* \"#utility.yul\":12473:12490   */\n      and\n        /* \"#utility.yul\":12463:12490   */\n      swap2\n      pop\n        /* \"#utility.yul\":12419:12500   */\n    tag_231:\n        /* \"#utility.yul\":12547:12549   */\n      0x20\n        /* \"#utility.yul\":12539:12545   */\n      dup3\n        /* \"#utility.yul\":12536:12550   */\n      lt\n        /* \"#utility.yul\":12516:12534   */\n      dup2\n        /* \"#utility.yul\":12513:12551   */\n      sub\n        /* \"#utility.yul\":12510:12594   */\n      tag_232\n      jumpi\n        /* \"#utility.yul\":12566:12584   */\n      tag_233\n      tag_98\n      jump\t// in\n    tag_233:\n        /* \"#utility.yul\":12510:12594   */\n    tag_232:\n        /* \"#utility.yul\":12331:12600   */\n      pop\n        /* \"#utility.yul\":12280:12600   */\n      swap2\n      swap1\n      pop\n      jump\t// out\n        /* \"#utility.yul\":12606:12747   */\n    tag_99:\n        /* \"#utility.yul\":12655:12659   */\n      0x00\n        /* \"#utility.yul\":12678:12681   */\n      dup2\n        /* \"#utility.yul\":12670:12681   */\n      swap1\n      pop\n        /* \"#utility.yul\":12701:12704   */\n      dup2\n        /* \"#utility.yul\":12698:12699   */\n      0x00\n        /* \"#utility.yul\":12691:12705   */\n      mstore\n        /* \"#utility.yul\":12735:12739   */\n      0x20\n        /* \"#utility.yul\":12732:12733   */\n      0x00\n        /* \"#utility.yul\":12722:12740   */\n      keccak256\n        /* \"#utility.yul\":12714:12740   */\n      swap1\n      pop\n        /* \"#utility.yul\":12606:12747   */\n      swap2\n      swap1\n      pop\n      jump\t// out\n        /* \"#utility.yul\":12753:12846   */\n    tag_100:\n        /* \"#utility.yul\":12790:12796   */\n      0x00\n        /* \"#utility.yul\":12837:12839   */\n      0x20\n        /* \"#utility.yul\":12832:12834   */\n      0x1f\n        /* \"#utility.yul\":12825:12830   */\n      dup4\n        /* \"#utility.yul\":12821:12835   */\n      add\n        /* \"#utility.yul\":12817:12840   */\n      div\n        /* \"#utility.yul\":12807:12840   */\n      swap1\n      pop\n        /* \"#utility.yul\":12753:12846   */\n      swap2\n      swap1\n      pop\n      jump\t// out\n        /* \"#utility.yul\":12852:12959   */\n    tag_101:\n        /* \"#utility.yul\":12896:12904   */\n      0x00\n        /* \"#utility.yul\":12946:12951   */\n      dup3\n        /* \"#utility.yul\":12940:12944   */\n      dup3\n        /* \"#utility.yul\":12936:12952   */\n      shl\n        /* \"#utility.yul\":12915:12952   */\n      swap1\n      pop\n        /* \"#utility.yul\":12852:12959   */\n      swap3\n      swap2\n      pop\n      pop\n      jump\t// out\n        /* \"#utility.yul\":12965:13358   */\n    tag_102:\n        /* \"#utility.yul\":13034:13040   */\n      0x00\n        /* \"#utility.yul\":13084:13085   */\n      0x08\n        /* \"#utility.yul\":13072:13082   */\n      dup4\n        /* \"#utility.yul\":13068:13086   */\n      mul\n        /* \"#utility.yul\":13107:13204   */\n      tag_238\n        /* \"#utility.yul\":13137:13203   */\n      0xffffffffffffffffffffffffffffffffffffffffffffffffffffffffffffffff\n        /* \"#utility.yul\":13126:13135   */\n      dup3\n        /* \"#utility.yul\":13107:13204   */\n      tag_101\n      jump\t// in\n    tag_238:\n        /* \"#utility.yul\":13225:13264   */\n      tag_239\n        /* \"#utility.yul\":13255:13263   */\n      dup7\n        /* \"#utility.yul\":13244:13253   */\n      dup4\n        /* \"#utility.yul\":13225:13264   */\n      tag_101\n      jump\t// in\n    tag_239:\n        /* \"#utility.yul\":13213:13264   */\n      swap6\n      pop\n        /* \"#utility.yul\":13297:13301   */\n      dup1\n        /* \"#utility.yul\":13293:13302   */\n      not\n        /* \"#utility.yul\":13286:13291   */\n      dup5\n        /* \"#utility.yul\":13282:13303   */\n      and\n        /* \"#utility.yul\":13273:13303   */\n      swap4\n      pop\n        /* \"#utility.yul\":13346:13350   */\n      dup1\n        /* \"#utility.yul\":13336:13344   */\n      dup7\n        /* \"#utility.yul\":13332:13351   */\n      and\n        /* \"#utility.yul\":13325:13330   */\n      dup5\n        /* \"#utility.yul\":13322:13352   */\n      or\n        /* \"#utility.yul\":13312:13352   */\n      swap3\n      pop\n        /* \"#utility.yul\":13041:13358   */\n      pop\n      pop\n        /* \"#utility.yul\":12965:13358   */\n      swap4\n      swap3\n      pop\n      pop\n      pop\n      jump\t// out\n        /* \"#utility.yul\":13364:13424   */\n    tag_103:\n        /* \"#utility.yul\":13392:13395   */\n      0x00\n        /* \"#utility.yul\":13413:13418   */\n      dup2\n        /* \"#utility.yul\":13406:13418   */\n      swap1\n      pop\n        /* \"#utility.yul\":13364:13424   */\n      swap2\n      swap1\n      pop\n      jump\t// out\n        /* \"#utility.yul\":13430:13572   */\n    tag_104:\n        /* \"#utility.yul\":13480:13489   */\n      0x00\n        /* \"#utility.yul\":13513:13566   */\n      tag_242\n        /* \"#utility.yul\":13531:13565   */\n      tag_243\n        /* \"#utility.yul\":13540:13564   */\n      tag_244\n        /* \"#utility.yul\":13558:13563   */\n      dup5\n        /* \"#utility.yul\":13540:13564   */\n      tag_67\n      jump\t// in\n    tag_244:\n        /* \"#utility.yul\":13531:13565   */\n      tag_103\n      jump\t// in\n    tag_243:\n        /* \"#utility.yul\":13513:13566   */\n      tag_67\n      jump\t// in\n    tag_242:\n        /* \"#utility.yul\":13500:13566   */\n      swap1\n      pop\n        /* \"#utility.yul\":13430:13572   */\n      swap2\n      swap1\n      pop\n      jump\t// out\n        /* \"#utility.yul\":13578:13653   */\n    tag_105:\n        /* \"#utility.yul\":13621:13624   */\n      0x00\n        /* \"#utility.yul\":13642:13647   */\n      dup2\n        /* \"#utility.yul\":13635:13647   */\n      swap1\n      pop\n        /* \"#utility.yul\":13578:13653   */\n      swap2\n      swap1\n      pop\n      jump\t// out\n        /* \"#utility.yul\":13659:13928   */\n    tag_106:\n        /* \"#utility.yul\":13769:13808   */\n      tag_247\n        /* \"#utility.yul\":13800:13807   */\n      dup4\n        /* \"#utility.yul\":13769:13808   */\n      tag_104\n      jump\t// in\n    tag_247:\n        /* \"#utility.yul\":13830:13921   */\n      tag_248\n        /* \"#utility.yul\":13879:13920   */\n      tag_249\n        /* \"#utility.yul\":13903:13919   */\n      dup3\n        /* \"#utility.yul\":13879:13920   */\n      tag_105\n      jump\t// in\n    tag_249:\n        /* \"#utility.yul\":13871:13877   */\n      dup5\n        /* \"#utility.yul\":13864:13868   */\n      dup5\n        /* \"#utility.yul\":13858:13869   */\n      sload\n        /* \"#utility.yul\":13830:13921   */\n      tag_102\n      jump\t// in\n    tag_248:\n        /* \"#utility.yul\":13824:13828   */\n      dup3\n        /* \"#utility.yul\":13817:13922   */\n      sstore\n        /* \"#utility.yul\":13735:13928   */\n      pop\n        /* \"#utility.yul\":13659:13928   */\n      pop\n      pop\n      pop\n      jump\t// out\n        /* \"#utility.yul\":13934:14007   */\n    tag_107:\n        /* \"#utility.yul\":13979:13982   */\n      0x00\n        /* \"#utility.yul\":13934:14007   */\n      swap1\n      jump\t// out\n        /* \"#utility.yul\":14013:14202   */\n    tag_108:\n        /* \"#utility.yul\":14090:14122   */\n      tag_252\n      tag_107\n      jump\t// in\n    tag_252:\n        /* \"#utility.yul\":14131:14196   */\n      tag_253\n        /* \"#utility.yul\":14189:14195   */\n      dup2\n        /* \"#utility.yul\":14181:14187   */\n      dup5\n        /* \"#utility.yul\":14175:14179   */\n      dup5\n        /* \"#utility.yul\":14131:14196   */\n      tag_106\n      jump\t// in\n    tag_253:\n        /* \"#utility.yul\":14066:14202   */\n      pop\n        /* \"#utility.yul\":14013:14202   */\n      pop\n      pop\n      jump\t// out\n        /* \"#utility.yul\":14208:14394   */\n    tag_109:\n        /* \"#utility.yul\":14268:14388   */\n    tag_255:\n        /* \"#utility.yul\":14285:14288   */\n      dup2\n        /* \"#utility.yul\":14278:14283   */\n      dup2\n        /* \"#utility.yul\":14275:14289   */\n      lt\n        /* \"#utility.yul\":14268:14388   */\n      iszero\n      tag_257\n      jumpi\n        /* \"#utility.yul\":14339:14378   */\n      tag_258\n        /* \"#utility.yul\":14376:14377   */\n      0x00\n        /* \"#utility.yul\":14369:14374   */\n      dup3\n        /* \"#utility.yul\":14339:14378   */\n      tag_108\n      jump\t// in\n    tag_258:\n        /* \"#utility.yul\":14312:14313   */\n      0x01\n        /* \"#utility.yul\":14305:14310   */\n      dup2\n        /* \"#utility.yul\":14301:14314   */\n      add\n        /* \"#utility.yul\":14292:14314   */\n      swap1\n      pop\n        /* \"#utility.yul\":14268:14388   */\n      jump(tag_255)\n    tag_257:\n        /* \"#utility.yul\":14208:14394   */\n      pop\n      pop\n      jump\t// out\n        /* \"#utility.yul\":14400:14943   */\n    tag_110:\n        /* \"#utility.yul\":14501:14503   */\n      0x1f\n        /* \"#utility.yul\":14496:14499   */\n      dup3\n        /* \"#utility.yul\":14493:14504   */\n      gt\n        /* \"#utility.yul\":14490:14936   */\n      iszero\n      tag_260\n      jumpi\n        /* \"#utility.yul\":14535:14573   */\n      tag_261\n        /* \"#utility.yul\":14567:14572   */\n      dup2\n        /* \"#utility.yul\":14535:14573   */\n      tag_99\n      jump\t// in\n    tag_261:\n        /* \"#utility.yul\":14619:14648   */\n      tag_262\n        /* \"#utility.yul\":14637:14647   */\n      dup5\n        /* \"#utility.yul\":14619:14648   */\n      tag_100\n      jump\t// in\n    tag_262:\n        /* \"#utility.yul\":14609:14617   */\n      dup2\n        /* \"#utility.yul\":14605:14649   */\n      add\n        /* \"#utility.yul\":14802:14804   */\n      0x20\n        /* \"#utility.yul\":14790:14800   */\n      dup6\n        /* \"#utility.yul\":14787:14805   */\n      lt\n        /* \"#utility.yul\":14784:14833   */\n      iszero\n      tag_263\n      jumpi\n        /* \"#utility.yul\":14823:14831   */\n      dup2\n        /* \"#utility.yul\":14808:14831   */\n      swap1\n      pop\n        /* \"#utility.yul\":14784:14833   */\n    tag_263:\n        /* \"#utility.yul\":14846:14926   */\n      tag_264\n        /* \"#utility.yul\":14902:14924   */\n      tag_265\n        /* \"#utility.yul\":14920:14923   */\n      dup6\n        /* \"#utility.yul\":14902:14924   */\n      tag_100\n      jump\t// in\n    tag_265:\n        /* \"#utility.yul\":14892:14900   */\n      dup4\n        /* \"#utility.yul\":14888:14925   */\n      add\n        /* \"#utility.yul\":14875:14886   */\n      dup3\n        /* \"#utility.yul\":14846:14926   */\n      tag_109\n      jump\t// in\n    tag_264:\n        /* \"#utility.yul\":14505:14936   */\n      pop\n      pop\n        /* \"#utility.yul\":14490:14936   */\n    tag_260:\n        /* \"#utility.yul\":14400:14943   */\n      pop\n      pop\n      pop\n      jump\t// out\n        /* \"#utility.yul\":14949:15066   */\n    tag_111:\n        /* \"#utility.yul\":15003:15011   */\n      0x00\n        /* \"#utility.yul\":15053:15058   */\n      dup3\n        /* \"#utility.yul\":15047:15051   */\n      dup3\n        /* \"#utility.yul\":15043:15059   */\n      shr\n        /* \"#utility.yul\":15022:15059   */\n      swap1\n      pop\n        /* \"#utility.yul\":14949:15066   */\n      swap3\n      swap2\n      pop\n      pop\n      jump\t// out\n        /* \"#utility.yul\":15072:15241   */\n    tag_112:\n        /* \"#utility.yul\":15116:15122   */\n      0x00\n        /* \"#utility.yul\":15149:15200   */\n      tag_268\n        /* \"#utility.yul\":15197:15198   */\n      0x00\n        /* \"#utility.yul\":15193:15199   */\n      not\n        /* \"#utility.yul\":15185:15190   */\n      dup5\n        /* \"#utility.yul\":15182:15183   */\n      0x08\n        /* \"#utility.yul\":15178:15191   */\n      mul\n        /* \"#utility.yul\":15149:15200   */\n      tag_111\n      jump\t// in\n    tag_268:\n        /* \"#utility.yul\":15145:15201   */\n      not\n        /* \"#utility.yul\":15230:15234   */\n      dup1\n        /* \"#utility.yul\":15224:15228   */\n      dup4\n        /* \"#utility.yul\":15220:15235   */\n      and\n        /* \"#utility.yul\":15210:15235   */\n      swap2\n      pop\n        /* \"#utility.yul\":15123:15241   */\n      pop\n        /* \"#utility.yul\":15072:15241   */\n      swap3\n      swap2\n      pop\n      pop\n      jump\t// out\n        /* \"#utility.yul\":15246:15541   */\n    tag_113:\n        /* \"#utility.yul\":15322:15326   */\n      0x00\n        /* \"#utility.yul\":15468:15497   */\n      tag_270\n        /* \"#utility.yul\":15493:15496   */\n      dup4\n        /* \"#utility.yul\":15487:15491   */\n      dup4\n        /* \"#utility.yul\":15468:15497   */\n      tag_112\n      jump\t// in\n    tag_270:\n        /* \"#utility.yul\":15460:15497   */\n      swap2\n      pop\n        /* \"#utility.yul\":15530:15533   */\n      dup3\n        /* \"#utility.yul\":15527:15528   */\n      0x02\n        /* \"#utility.yul\":15523:15534   */\n      mul\n        /* \"#utility.yul\":15517:15521   */\n      dup3\n        /* \"#utility.yul\":15514:15535   */\n      or\n        /* \"#utility.yul\":15506:15535   */\n      swap1\n      pop\n        /* \"#utility.yul\":15246:15541   */\n      swap3\n      swap2\n      pop\n      pop\n      jump\t// out\n        /* \"#utility.yul\":15546:16941   */\n    tag_47:\n        /* \"#utility.yul\":15663:15700   */\n      tag_272\n        /* \"#utility.yul\":15696:15699   */\n      dup3\n        /* \"#utility.yul\":15663:15700   */\n      tag_71\n      jump\t// in\n    tag_272:\n        /* \"#utility.yul\":15765:15783   */\n      0xffffffffffffffff\n        /* \"#utility.yul\":15757:15763   */\n      dup2\n        /* \"#utility.yul\":15754:15784   */\n      gt\n        /* \"#utility.yul\":15751:15807   */\n      iszero\n      tag_273\n      jumpi\n        /* \"#utility.yul\":15787:15805   */\n      tag_274\n      tag_90\n      jump\t// in\n    tag_274:\n        /* \"#utility.yul\":15751:15807   */\n    tag_273:\n        /* \"#utility.yul\":15831:15869   */\n      tag_275\n        /* \"#utility.yul\":15863:15867   */\n      dup3\n        /* \"#utility.yul\":15857:15868   */\n      sload\n        /* \"#utility.yul\":15831:15869   */\n      tag_30\n      jump\t// in\n    tag_275:\n        /* \"#utility.yul\":15916:15983   */\n      tag_276\n        /* \"#utility.yul\":15976:15982   */\n      dup3\n        /* \"#utility.yul\":15968:15974   */\n      dup3\n        /* \"#utility.yul\":15962:15966   */\n      dup6\n        /* \"#utility.yul\":15916:15983   */\n      tag_110\n      jump\t// in\n    tag_276:\n        /* \"#utility.yul\":16010:16011   */\n      0x00\n        /* \"#utility.yul\":16034:16038   */\n      0x20\n        /* \"#utility.yul\":16021:16038   */\n      swap1\n      pop\n        /* \"#utility.yul\":16066:16068   */\n      0x1f\n        /* \"#utility.yul\":16058:16064   */\n      dup4\n        /* \"#utility.yul\":16055:16069   */\n      gt\n        /* \"#utility.yul\":16083:16084   */\n      0x01\n        /* \"#utility.yul\":16078:16696   */\n      dup2\n      eq\n      tag_278\n      jumpi\n        /* \"#utility.yul\":16740:16741   */\n      0x00\n        /* \"#utility.yul\":16757:16763   */\n      dup5\n        /* \"#utility.yul\":16754:16831   */\n      iszero\n      tag_279\n      jumpi\n        /* \"#utility.yul\":16806:16815   */\n      dup3\n        /* \"#utility.yul\":16801:16804   */\n      dup8\n        /* \"#utility.yul\":16797:16816   */\n      add\n        /* \"#utility.yul\":16791:16817   */\n      mload\n        /* \"#utility.yul\":16782:16817   */\n      swap1\n      pop\n        /* \"#utility.yul\":16754:16831   */\n    tag_279:\n        /* \"#utility.yul\":16857:16924   */\n      tag_280\n        /* \"#utility.yul\":16917:16923   */\n      dup6\n        /* \"#utility.yul\":16910:16915   */\n      dup3\n        /* \"#utility.yul\":16857:16924   */\n      tag_113\n      jump\t// in\n    tag_280:\n        /* \"#utility.yul\":16851:16855   */\n      dup7\n        /* \"#utility.yul\":16844:16925   */\n      sstore\n        /* \"#utility.yul\":16713:16935   */\n      pop\n        /* \"#utility.yul\":16048:16935   */\n      jump(tag_277)\n        /* \"#utility.yul\":16078:16696   */\n    tag_278:\n        /* \"#utility.yul\":16130:16134   */\n      0x1f\n        /* \"#utility.yul\":16126:16135   */\n      not\n        /* \"#utility.yul\":16118:16124   */\n      dup5\n        /* \"#utility.yul\":16114:16136   */\n      and\n        /* \"#utility.yul\":16164:16201   */\n      tag_281\n        /* \"#utility.yul\":16196:16200   */\n      dup7\n        /* \"#utility.yul\":16164:16201   */\n      tag_99\n      jump\t// in\n    tag_281:\n        /* \"#utility.yul\":16223:16224   */\n      0x00\n        /* \"#utility.yul\":16237:16445   */\n    tag_282:\n        /* \"#utility.yul\":16251:16258   */\n      dup3\n        /* \"#utility.yul\":16248:16249   */\n      dup2\n        /* \"#utility.yul\":16245:16259   */\n      lt\n        /* \"#utility.yul\":16237:16445   */\n      iszero\n      tag_284\n      jumpi\n        /* \"#utility.yul\":16330:16339   */\n      dup5\n        /* \"#utility.yul\":16325:16328   */\n      dup10\n        /* \"#utility.yul\":16321:16340   */\n      add\n        /* \"#utility.yul\":16315:16341   */\n      mload\n        /* \"#utility.yul\":16307:16313   */\n      dup3\n        /* \"#utility.yul\":16300:16342   */\n      sstore\n        /* \"#utility.yul\":16381:16382   */\n      0x01\n        /* \"#utility.yul\":16373:16379   */\n      dup3\n        /* \"#utility.yul\":16369:16383   */\n      add\n        /* \"#utility.yul\":16359:16383   */\n      swap2\n      pop\n        /* \"#utility.yul\":16428:16430   */\n      0x20\n        /* \"#utility.yul\":16417:16426   */\n      dup6\n        /* \"#utility.yul\":16413:16431   */\n      add\n        /* \"#utility.yul\":16400:16431   */\n      swap5\n      pop\n        /* \"#utility.yul\":16274:16278   */\n      0x20\n        /* \"#utility.yul\":16271:16272   */\n      dup2\n        /* \"#utility.yul\":16267:16279   */\n      add\n        /* \"#utility.yul\":16262:16279   */\n      swap1\n      pop\n        /* \"#utility.yul\":16237:16445   */\n      jump(tag_282)\n    tag_284:\n        /* \"#utility.yul\":16473:16479   */\n      dup7\n        /* \"#utility.yul\":16464:16471   */\n      dup4\n        /* \"#utility.yul\":16461:16480   */\n      lt\n        /* \"#utility.yul\":16458:16637   */\n      iszero\n      tag_285\n      jumpi\n        /* \"#utility.yul\":16531:16540   */\n      dup5\n        /* \"#utility.yul\":16526:16529   */\n      dup10\n        /* \"#utility.yul\":16522:16541   */\n      add\n        /* \"#utility.yul\":16516:16542   */\n      mload\n        /* \"#utility.yul\":16574:16622   */\n      tag_286\n        /* \"#utility.yul\":16616:16620   */\n      0x1f\n        /* \"#utility.yul\":16608:16614   */\n      dup10\n        /* \"#utility.yul\":16604:16621   */\n      and\n        /* \"#utility.yul\":16593:16602   */\n      dup3\n        /* \"#utility.yul\":16574:16622   */\n      tag_112\n      jump\t// in\n    tag_286:\n        /* \"#utility.yul\":16566:16572   */\n      dup4\n        /* \"#utility.yul\":16559:16623   */\n      sstore\n        /* \"#utility.yul\":16481:16637   */\n      pop\n        /* \"#utility.yul\":16458:16637   */\n    tag_285:\n        /* \"#utility.yul\":16683:16684   */\n      0x01\n        /* \"#utility.yul\":16679:16680   */\n      0x02\n        /* \"#utility.yul\":16671:16677   */\n      dup9\n        /* \"#utility.yul\":16667:16681   */\n      mul\n        /* \"#utility.yul\":16663:16685   */\n      add\n        /* \"#utility.yul\":16657:16661   */\n      dup9\n        /* \"#utility.yul\":16650:16686   */\n      sstore\n        /* \"#utility.yul\":16085:16696   */\n      pop\n      pop\n      pop\n        /* \"#utility.yul\":16048:16935   */\n    tag_277:\n      pop\n        /* \"#utility.yul\":15638:16941   */\n      pop\n      pop\n      pop\n        /* \"#utility.yul\":15546:16941   */\n      pop\n      pop\n      jump\t// out\n        /* \"#utility.yul\":16947:17127   */\n    tag_53:\n        /* \"#utility.yul\":16995:17072   */\n      0x4e487b7100000000000000000000000000000000000000000000000000000000\n        /* \"#utility.yul\":16992:16993   */\n      0x00\n        /* \"#utility.yul\":16985:17073   */\n      mstore\n        /* \"#utility.yul\":17092:17096   */\n      0x32\n        /* \"#utility.yul\":17089:17090   */\n      0x04\n        /* \"#utility.yul\":17082:17097   */\n      mstore\n        /* \"#utility.yul\":17116:17120   */\n      0x24\n        /* \"#utility.yul\":17113:17114   */\n      0x00\n        /* \"#utility.yul\":17106:17121   */\n      revert\n\n    auxdata: 0xa2646970667358221220b2d53e04df22e37b2db4bf23112c5374aa92d0af44ba75c25a3c22d3eedd9cdd64736f6c634300081a0033\n}\n",
				"bytecode": {
					"linkReferences": {},
					"object": "6080604052348015600e575f80fd5b50610eba8061001c5f395ff3fe608060405234801561000f575f80fd5b506004361061004a575f3560e01c806305a1b4a91461004e57806353256135146100815780637c9cd2bc1461009f578063c3ad5ecb146100bb575b5f80fd5b610068600480360381019061006391906106b9565b6100eb565b6040516100789493929190610785565b60405180910390f35b6100896101d5565b6040516100969190610950565b60405180910390f35b6100b960048036038101906100b49190610a9c565b610363565b005b6100d560048036038101906100d09190610ae3565b610474565b6040516100e29190610b6e565b60405180910390f35b5f602052815f5260405f208181548110610103575f80fd5b905f5260205f2090600402015f9150915050805f015f9054906101000a900473ffffffffffffffffffffffffffffffffffffffff169080600101805461014890610bbb565b80601f016020809104026020016040519081016040528092919081815260200182805461017490610bbb565b80156101bf5780601f10610196576101008083540402835291602001916101bf565b820191905f5260205f20905b8154815290600101906020018083116101a257829003601f168201915b5050505050908060020154908060030154905084565b60605f803373ffffffffffffffffffffffffffffffffffffffff1673ffffffffffffffffffffffffffffffffffffffff1681526020019081526020015f20805480602002602001604051908101604052809291908181526020015f905b8282101561035a578382905f5260205f2090600402016040518060800160405290815f82015f9054906101000a900473ffffffffffffffffffffffffffffffffffffffff1673ffffffffffffffffffffffffffffffffffffffff1673ffffffffffffffffffffffffffffffffffffffff1681526020016001820180546102b790610bbb565b80601f01602080910402602001604051908101604052809291908181526020018280546102e390610bbb565b801561032e5780601f106103055761010080835404028352916020019161032e565b820191905f5260205f20905b81548152906001019060200180831161031157829003601f168201915b505050505081526020016002820154815260200160038201548152505081526020019060010190610232565b50505050905090565b5f60405180608001604052803373ffffffffffffffffffffffffffffffffffffffff1681526020018381526020014281526020015f81525090505f803373ffffffffffffffffffffffffffffffffffffffff1673ffffffffffffffffffffffffffffffffffffffff1681526020019081526020015f2081908060018154018082558091505060019003905f5260205f2090600402015f909190919091505f820151815f015f6101000a81548173ffffffffffffffffffffffffffffffffffffffff021916908373ffffffffffffffffffffffffffffffffffffffff16021790555060208201518160010190816104599190610d88565b50604082015181600201556060820151816003015550505050565b61047c6105e0565b5f803373ffffffffffffffffffffffffffffffffffffffff1673ffffffffffffffffffffffffffffffffffffffff1681526020019081526020015f2082815481106104ca576104c9610e57565b5b905f5260205f2090600402016040518060800160405290815f82015f9054906101000a900473ffffffffffffffffffffffffffffffffffffffff1673ffffffffffffffffffffffffffffffffffffffff1673ffffffffffffffffffffffffffffffffffffffff16815260200160018201805461054590610bbb565b80601f016020809104026020016040519081016040528092919081815260200182805461057190610bbb565b80156105bc5780601f10610593576101008083540402835291602001916105bc565b820191905f5260205f20905b81548152906001019060200180831161059f57829003601f168201915b50505050508152602001600282015481526020016003820154815250509050919050565b60405180608001604052805f73ffffffffffffffffffffffffffffffffffffffff168152602001606081526020015f81526020015f81525090565b5f604051905090565b5f80fd5b5f80fd5b5f73ffffffffffffffffffffffffffffffffffffffff82169050919050565b5f6106558261062c565b9050919050565b6106658161064b565b811461066f575f80fd5b50565b5f813590506106808161065c565b92915050565b5f819050919050565b61069881610686565b81146106a2575f80fd5b50565b5f813590506106b38161068f565b92915050565b5f80604083850312156106cf576106ce610624565b5b5f6106dc85828601610672565b92505060206106ed858286016106a5565b9150509250929050565b6107008161064b565b82525050565b5f81519050919050565b5f82825260208201905092915050565b8281835e5f83830152505050565b5f601f19601f8301169050919050565b5f61074882610706565b6107528185610710565b9350610762818560208601610720565b61076b8161072e565b840191505092915050565b61077f81610686565b82525050565b5f6080820190506107985f8301876106f7565b81810360208301526107aa818661073e565b90506107b96040830185610776565b6107c66060830184610776565b95945050505050565b5f81519050919050565b5f82825260208201905092915050565b5f819050602082019050919050565b6108018161064b565b82525050565b5f82825260208201905092915050565b5f61082182610706565b61082b8185610807565b935061083b818560208601610720565b6108448161072e565b840191505092915050565b61085881610686565b82525050565b5f608083015f8301516108735f8601826107f8565b506020830151848203602086015261088b8282610817565b91505060408301516108a0604086018261084f565b5060608301516108b3606086018261084f565b508091505092915050565b5f6108c9838361085e565b905092915050565b5f602082019050919050565b5f6108e7826107cf565b6108f181856107d9565b935083602082028501610903856107e9565b805f5b8581101561093e578484038952815161091f85826108be565b945061092a836108d1565b925060208a01995050600181019050610906565b50829750879550505050505092915050565b5f6020820190508181035f83015261096881846108dd565b905092915050565b5f80fd5b5f80fd5b7f4e487b71000000000000000000000000000000000000000000000000000000005f52604160045260245ffd5b6109ae8261072e565b810181811067ffffffffffffffff821117156109cd576109cc610978565b5b80604052505050565b5f6109df61061b565b90506109eb82826109a5565b919050565b5f67ffffffffffffffff821115610a0a57610a09610978565b5b610a138261072e565b9050602081019050919050565b828183375f83830152505050565b5f610a40610a3b846109f0565b6109d6565b905082815260208101848484011115610a5c57610a5b610974565b5b610a67848285610a20565b509392505050565b5f82601f830112610a8357610a82610970565b5b8135610a93848260208601610a2e565b91505092915050565b5f60208284031215610ab157610ab0610624565b5b5f82013567ffffffffffffffff811115610ace57610acd610628565b5b610ada84828501610a6f565b91505092915050565b5f60208284031215610af857610af7610624565b5b5f610b05848285016106a5565b91505092915050565b5f608083015f830151610b235f8601826107f8565b5060208301518482036020860152610b3b8282610817565b9150506040830151610b50604086018261084f565b506060830151610b63606086018261084f565b508091505092915050565b5f6020820190508181035f830152610b868184610b0e565b905092915050565b7f4e487b71000000000000000000000000000000000000000000000000000000005f52602260045260245ffd5b5f6002820490506001821680610bd257607f821691505b602082108103610be557610be4610b8e565b5b50919050565b5f819050815f5260205f209050919050565b5f6020601f8301049050919050565b5f82821b905092915050565b5f60088302610c477fffffffffffffffffffffffffffffffffffffffffffffffffffffffffffffffff82610c0c565b610c518683610c0c565b95508019841693508086168417925050509392505050565b5f819050919050565b5f610c8c610c87610c8284610686565b610c69565b610686565b9050919050565b5f819050919050565b610ca583610c72565b610cb9610cb182610c93565b848454610c18565b825550505050565b5f90565b610ccd610cc1565b610cd8818484610c9c565b505050565b5b81811015610cfb57610cf05f82610cc5565b600181019050610cde565b5050565b601f821115610d4057610d1181610beb565b610d1a84610bfd565b81016020851015610d29578190505b610d3d610d3585610bfd565b830182610cdd565b50505b505050565b5f82821c905092915050565b5f610d605f1984600802610d45565b1980831691505092915050565b5f610d788383610d51565b9150826002028217905092915050565b610d9182610706565b67ffffffffffffffff811115610daa57610da9610978565b5b610db48254610bbb565b610dbf828285610cff565b5f60209050601f831160018114610df0575f8415610dde578287015190505b610de88582610d6d565b865550610e4f565b601f198416610dfe86610beb565b5f5b82811015610e2557848901518255600182019150602085019450602081019050610e00565b86831015610e425784890151610e3e601f891682610d51565b8355505b6001600288020188555050505b505050505050565b7f4e487b71000000000000000000000000000000000000000000000000000000005f52603260045260245ffdfea2646970667358221220b2d53e04df22e37b2db4bf23112c5374aa92d0af44ba75c25a3c22d3eedd9cdd64736f6c634300081a0033",
					"opcodes": "PUSH1 0x80 PUSH1 0x40 MSTORE CALLVALUE DUP1 ISZERO PUSH1 0xE JUMPI PUSH0 DUP1 REVERT JUMPDEST POP PUSH2 0xEBA DUP1 PUSH2 0x1C PUSH0 CODECOPY PUSH0 RETURN INVALID PUSH1 0x80 PUSH1 0x40 MSTORE CALLVALUE DUP1 ISZERO PUSH2 0xF JUMPI PUSH0 DUP1 REVERT JUMPDEST POP PUSH1 0x4 CALLDATASIZE LT PUSH2 0x4A JUMPI PUSH0 CALLDATALOAD PUSH1 0xE0 SHR DUP1 PUSH4 0x5A1B4A9 EQ PUSH2 0x4E JUMPI DUP1 PUSH4 0x53256135 EQ PUSH2 0x81 JUMPI DUP1 PUSH4 0x7C9CD2BC EQ PUSH2 0x9F JUMPI DUP1 PUSH4 0xC3AD5ECB EQ PUSH2 0xBB JUMPI JUMPDEST PUSH0 DUP1 REVERT JUMPDEST PUSH2 0x68 PUSH1 0x4 DUP1 CALLDATASIZE SUB DUP2 ADD SWAP1 PUSH2 0x63 SWAP2 SWAP1 PUSH2 0x6B9 JUMP JUMPDEST PUSH2 0xEB JUMP JUMPDEST PUSH1 0x40 MLOAD PUSH2 0x78 SWAP5 SWAP4 SWAP3 SWAP2 SWAP1 PUSH2 0x785 JUMP JUMPDEST PUSH1 0x40 MLOAD DUP1 SWAP2 SUB SWAP1 RETURN JUMPDEST PUSH2 0x89 PUSH2 0x1D5 JUMP JUMPDEST PUSH1 0x40 MLOAD PUSH2 0x96 SWAP2 SWAP1 PUSH2 0x950 JUMP JUMPDEST PUSH1 0x40 MLOAD DUP1 SWAP2 SUB SWAP1 RETURN JUMPDEST PUSH2 0xB9 PUSH1 0x4 DUP1 CALLDATASIZE SUB DUP2 ADD SWAP1 PUSH2 0xB4 SWAP2 SWAP1 PUSH2 0xA9C JUMP JUMPDEST PUSH2 0x363 JUMP JUMPDEST STOP JUMPDEST PUSH2 0xD5 PUSH1 0x4 DUP1 CALLDATASIZE SUB DUP2 ADD SWAP1 PUSH2 0xD0 SWAP2 SWAP1 PUSH2 0xAE3 JUMP JUMPDEST PUSH2 0x474 JUMP JUMPDEST PUSH1 0x40 MLOAD PUSH2 0xE2 SWAP2 SWAP1 PUSH2 0xB6E JUMP JUMPDEST PUSH1 0x40 MLOAD DUP1 SWAP2 SUB SWAP1 RETURN JUMPDEST PUSH0 PUSH1 0x20 MSTORE DUP2 PUSH0 MSTORE PUSH1 0x40 PUSH0 KECCAK256 DUP2 DUP2 SLOAD DUP2 LT PUSH2 0x103 JUMPI PUSH0 DUP1 REVERT JUMPDEST SWAP1 PUSH0 MSTORE PUSH1 0x20 PUSH0 KECCAK256 SWAP1 PUSH1 0x4 MUL ADD PUSH0 SWAP2 POP SWAP2 POP POP DUP1 PUSH0 ADD PUSH0 SWAP1 SLOAD SWAP1 PUSH2 0x100 EXP SWAP1 DIV PUSH20 0xFFFFFFFFFFFFFFFFFFFFFFFFFFFFFFFFFFFFFFFF AND SWAP1 DUP1 PUSH1 0x1 ADD DUP1 SLOAD PUSH2 0x148 SWAP1 PUSH2 0xBBB JUMP JUMPDEST DUP1 PUSH1 0x1F ADD PUSH1 0x20 DUP1 SWAP2 DIV MUL PUSH1 0x20 ADD PUSH1 0x40 MLOAD SWAP1 DUP2 ADD PUSH1 0x40 MSTORE DUP1 SWAP3 SWAP2 SWAP1 DUP2 DUP2 MSTORE PUSH1 0x20 ADD DUP3 DUP1 SLOAD PUSH2 0x174 SWAP1 PUSH2 0xBBB JUMP JUMPDEST DUP1 ISZERO PUSH2 0x1BF JUMPI DUP1 PUSH1 0x1F LT PUSH2 0x196 JUMPI PUSH2 0x100 DUP1 DUP4 SLOAD DIV MUL DUP4 MSTORE SWAP2 PUSH1 0x20 ADD SWAP2 PUSH2 0x1BF JUMP JUMPDEST DUP3 ADD SWAP2 SWAP1 PUSH0 MSTORE PUSH1 0x20 PUSH0 KECCAK256 SWAP1 JUMPDEST DUP2 SLOAD DUP2 MSTORE SWAP1 PUSH1 0x1 ADD SWAP1 PUSH1 0x20 ADD DUP1 DUP4 GT PUSH2 0x1A2 JUMPI DUP3 SWAP1 SUB PUSH1 0x1F AND DUP3 ADD SWAP2 JUMPDEST POP POP POP POP POP SWAP1 DUP1 PUSH1 0x2 ADD SLOAD SWAP1 DUP1 PUSH1 0x3 ADD SLOAD SWAP1 POP DUP5 JUMP JUMPDEST PUSH1 0x60 PUSH0 DUP1 CALLER PUSH20 0xFFFFFFFFFFFFFFFFFFFFFFFFFFFFFFFFFFFFFFFF AND PUSH20 0xFFFFFFFFFFFFFFFFFFFFFFFFFFFFFFFFFFFFFFFF AND DUP2 MSTORE PUSH1 0x20 ADD SWAP1 DUP2 MSTORE PUSH1 0x20 ADD PUSH0 KECCAK256 DUP1 SLOAD DUP1 PUSH1 0x20 MUL PUSH1 0x20 ADD PUSH1 0x40 MLOAD SWAP1 DUP2 ADD PUSH1 0x40 MSTORE DUP1 SWAP3 SWAP2 SWAP1 DUP2 DUP2 MSTORE PUSH1 0x20 ADD PUSH0 SWAP1 JUMPDEST DUP3 DUP3 LT ISZERO PUSH2 0x35A JUMPI DUP4 DUP3 SWAP1 PUSH0 MSTORE PUSH1 0x20 PUSH0 KECCAK256 SWAP1 PUSH1 0x4 MUL ADD PUSH1 0x40 MLOAD DUP1 PUSH1 0x80 ADD PUSH1 0x40 MSTORE SWAP1 DUP2 PUSH0 DUP3 ADD PUSH0 SWAP1 SLOAD SWAP1 PUSH2 0x100 EXP SWAP1 DIV PUSH20 0xFFFFFFFFFFFFFFFFFFFFFFFFFFFFFFFFFFFFFFFF AND PUSH20 0xFFFFFFFFFFFFFFFFFFFFFFFFFFFFFFFFFFFFFFFF AND PUSH20 0xFFFFFFFFFFFFFFFFFFFFFFFFFFFFFFFFFFFFFFFF AND DUP2 MSTORE PUSH1 0x20 ADD PUSH1 0x1 DUP3 ADD DUP1 SLOAD PUSH2 0x2B7 SWAP1 PUSH2 0xBBB JUMP JUMPDEST DUP1 PUSH1 0x1F ADD PUSH1 0x20 DUP1 SWAP2 DIV MUL PUSH1 0x20 ADD PUSH1 0x40 MLOAD SWAP1 DUP2 ADD PUSH1 0x40 MSTORE DUP1 SWAP3 SWAP2 SWAP1 DUP2 DUP2 MSTORE PUSH1 0x20 ADD DUP3 DUP1 SLOAD PUSH2 0x2E3 SWAP1 PUSH2 0xBBB JUMP JUMPDEST DUP1 ISZERO PUSH2 0x32E JUMPI DUP1 PUSH1 0x1F LT PUSH2 0x305 JUMPI PUSH2 0x100 DUP1 DUP4 SLOAD DIV MUL DUP4 MSTORE SWAP2 PUSH1 0x20 ADD SWAP2 PUSH2 0x32E JUMP JUMPDEST DUP3 ADD SWAP2 SWAP1 PUSH0 MSTORE PUSH1 0x20 PUSH0 KECCAK256 SWAP1 JUMPDEST DUP2 SLOAD DUP2 MSTORE SWAP1 PUSH1 0x1 ADD SWAP1 PUSH1 0x20 ADD DUP1 DUP4 GT PUSH2 0x311 JUMPI DUP3 SWAP1 SUB PUSH1 0x1F AND DUP3 ADD SWAP2 JUMPDEST POP POP POP POP POP DUP2 MSTORE PUSH1 0x20 ADD PUSH1 0x2 DUP3 ADD SLOAD DUP2 MSTORE PUSH1 0x20 ADD PUSH1 0x3 DUP3 ADD SLOAD DUP2 MSTORE POP POP DUP2 MSTORE PUSH1 0x20 ADD SWAP1 PUSH1 0x1 ADD SWAP1 PUSH2 0x232 JUMP JUMPDEST POP POP POP POP SWAP1 POP SWAP1 JUMP JUMPDEST PUSH0 PUSH1 0x40 MLOAD DUP1 PUSH1 0x80 ADD PUSH1 0x40 MSTORE DUP1 CALLER PUSH20 0xFFFFFFFFFFFFFFFFFFFFFFFFFFFFFFFFFFFFFFFF AND DUP2 MSTORE PUSH1 0x20 ADD DUP4 DUP2 MSTORE PUSH1 0x20 ADD TIMESTAMP DUP2 MSTORE PUSH1 0x20 ADD PUSH0 DUP2 MSTORE POP SWAP1 POP PUSH0 DUP1 CALLER PUSH20 0xFFFFFFFFFFFFFFFFFFFFFFFFFFFFFFFFFFFFFFFF AND PUSH20 0xFFFFFFFFFFFFFFFFFFFFFFFFFFFFFFFFFFFFFFFF AND DUP2 MSTORE PUSH1 0x20 ADD SWAP1 DUP2 MSTORE PUSH1 0x20 ADD PUSH0 KECCAK256 DUP2 SWAP1 DUP1 PUSH1 0x1 DUP2 SLOAD ADD DUP1 DUP3 SSTORE DUP1 SWAP2 POP POP PUSH1 0x1 SWAP1 SUB SWAP1 PUSH0 MSTORE PUSH1 0x20 PUSH0 KECCAK256 SWAP1 PUSH1 0x4 MUL ADD PUSH0 SWAP1 SWAP2 SWAP1 SWAP2 SWAP1 SWAP2 POP PUSH0 DUP3 ADD MLOAD DUP2 PUSH0 ADD PUSH0 PUSH2 0x100 EXP DUP2 SLOAD DUP2 PUSH20 0xFFFFFFFFFFFFFFFFFFFFFFFFFFFFFFFFFFFFFFFF MUL NOT AND SWAP1 DUP4 PUSH20 0xFFFFFFFFFFFFFFFFFFFFFFFFFFFFFFFFFFFFFFFF AND MUL OR SWAP1 SSTORE POP PUSH1 0x20 DUP3 ADD MLOAD DUP2 PUSH1 0x1 ADD SWAP1 DUP2 PUSH2 0x459 SWAP2 SWAP1 PUSH2 0xD88 JUMP JUMPDEST POP PUSH1 0x40 DUP3 ADD MLOAD DUP2 PUSH1 0x2 ADD SSTORE PUSH1 0x60 DUP3 ADD MLOAD DUP2 PUSH1 0x3 ADD SSTORE POP POP POP POP JUMP JUMPDEST PUSH2 0x47C PUSH2 0x5E0 JUMP JUMPDEST PUSH0 DUP1 CALLER PUSH20 0xFFFFFFFFFFFFFFFFFFFFFFFFFFFFFFFFFFFFFFFF AND PUSH20 0xFFFFFFFFFFFFFFFFFFFFFFFFFFFFFFFFFFFFFFFF AND DUP2 MSTORE PUSH1 0x20 ADD SWAP1 DUP2 MSTORE PUSH1 0x20 ADD PUSH0 KECCAK256 DUP3 DUP2 SLOAD DUP2 LT PUSH2 0x4CA JUMPI PUSH2 0x4C9 PUSH2 0xE57 JUMP JUMPDEST JUMPDEST SWAP1 PUSH0 MSTORE PUSH1 0x20 PUSH0 KECCAK256 SWAP1 PUSH1 0x4 MUL ADD PUSH1 0x40 MLOAD DUP1 PUSH1 0x80 ADD PUSH1 0x40 MSTORE SWAP1 DUP2 PUSH0 DUP3 ADD PUSH0 SWAP1 SLOAD SWAP1 PUSH2 0x100 EXP SWAP1 DIV PUSH20 0xFFFFFFFFFFFFFFFFFFFFFFFFFFFFFFFFFFFFFFFF AND PUSH20 0xFFFFFFFFFFFFFFFFFFFFFFFFFFFFFFFFFFFFFFFF AND PUSH20 0xFFFFFFFFFFFFFFFFFFFFFFFFFFFFFFFFFFFFFFFF AND DUP2 MSTORE PUSH1 0x20 ADD PUSH1 0x1 DUP3 ADD DUP1 SLOAD PUSH2 0x545 SWAP1 PUSH2 0xBBB JUMP JUMPDEST DUP1 PUSH1 0x1F ADD PUSH1 0x20 DUP1 SWAP2 DIV MUL PUSH1 0x20 ADD PUSH1 0x40 MLOAD SWAP1 DUP2 ADD PUSH1 0x40 MSTORE DUP1 SWAP3 SWAP2 SWAP1 DUP2 DUP2 MSTORE PUSH1 0x20 ADD DUP3 DUP1 SLOAD PUSH2 0x571 SWAP1 PUSH2 0xBBB JUMP JUMPDEST DUP1 ISZERO PUSH2 0x5BC JUMPI DUP1 PUSH1 0x1F LT PUSH2 0x593 JUMPI PUSH2 0x100 DUP1 DUP4 SLOAD DIV MUL DUP4 MSTORE SWAP2 PUSH1 0x20 ADD SWAP2 PUSH2 0x5BC JUMP JUMPDEST DUP3 ADD SWAP2 SWAP1 PUSH0 MSTORE PUSH1 0x20 PUSH0 KECCAK256 SWAP1 JUMPDEST DUP2 SLOAD DUP2 MSTORE SWAP1 PUSH1 0x1 ADD SWAP1 PUSH1 0x20 ADD DUP1 DUP4 GT PUSH2 0x59F JUMPI DUP3 SWAP1 SUB PUSH1 0x1F AND DUP3 ADD SWAP2 JUMPDEST POP POP POP POP POP DUP2 MSTORE PUSH1 0x20 ADD PUSH1 0x2 DUP3 ADD SLOAD DUP2 MSTORE PUSH1 0x20 ADD PUSH1 0x3 DUP3 ADD SLOAD DUP2 MSTORE POP POP SWAP1 POP SWAP2 SWAP1 POP JUMP JUMPDEST PUSH1 0x40 MLOAD DUP1 PUSH1 0x80 ADD PUSH1 0x40 MSTORE DUP1 PUSH0 PUSH20 0xFFFFFFFFFFFFFFFFFFFFFFFFFFFFFFFFFFFFFFFF AND DUP2 MSTORE PUSH1 0x20 ADD PUSH1 0x60 DUP2 MSTORE PUSH1 0x20 ADD PUSH0 DUP2 MSTORE PUSH1 0x20 ADD PUSH0 DUP2 MSTORE POP SWAP1 JUMP JUMPDEST PUSH0 PUSH1 0x40 MLOAD SWAP1 POP SWAP1 JUMP JUMPDEST PUSH0 DUP1 REVERT JUMPDEST PUSH0 DUP1 REVERT JUMPDEST PUSH0 PUSH20 0xFFFFFFFFFFFFFFFFFFFFFFFFFFFFFFFFFFFFFFFF DUP3 AND SWAP1 POP SWAP2 SWAP1 POP JUMP JUMPDEST PUSH0 PUSH2 0x655 DUP3 PUSH2 0x62C JUMP JUMPDEST SWAP1 POP SWAP2 SWAP1 POP JUMP JUMPDEST PUSH2 0x665 DUP2 PUSH2 0x64B JUMP JUMPDEST DUP2 EQ PUSH2 0x66F JUMPI PUSH0 DUP1 REVERT JUMPDEST POP JUMP JUMPDEST PUSH0 DUP2 CALLDATALOAD SWAP1 POP PUSH2 0x680 DUP2 PUSH2 0x65C JUMP JUMPDEST SWAP3 SWAP2 POP POP JUMP JUMPDEST PUSH0 DUP2 SWAP1 POP SWAP2 SWAP1 POP JUMP JUMPDEST PUSH2 0x698 DUP2 PUSH2 0x686 JUMP JUMPDEST DUP2 EQ PUSH2 0x6A2 JUMPI PUSH0 DUP1 REVERT JUMPDEST POP JUMP JUMPDEST PUSH0 DUP2 CALLDATALOAD SWAP1 POP PUSH2 0x6B3 DUP2 PUSH2 0x68F JUMP JUMPDEST SWAP3 SWAP2 POP POP JUMP JUMPDEST PUSH0 DUP1 PUSH1 0x40 DUP4 DUP6 SUB SLT ISZERO PUSH2 0x6CF JUMPI PUSH2 0x6CE PUSH2 0x624 JUMP JUMPDEST JUMPDEST PUSH0 PUSH2 0x6DC DUP6 DUP3 DUP7 ADD PUSH2 0x672 JUMP JUMPDEST SWAP3 POP POP PUSH1 0x20 PUSH2 0x6ED DUP6 DUP3 DUP7 ADD PUSH2 0x6A5 JUMP JUMPDEST SWAP2 POP POP SWAP3 POP SWAP3 SWAP1 POP JUMP JUMPDEST PUSH2 0x700 DUP2 PUSH2 0x64B JUMP JUMPDEST DUP3 MSTORE POP POP JUMP JUMPDEST PUSH0 DUP2 MLOAD SWAP1 POP SWAP2 SWAP1 POP JUMP JUMPDEST PUSH0 DUP3 DUP3 MSTORE PUSH1 0x20 DUP3 ADD SWAP1 POP SWAP3 SWAP2 POP POP JUMP JUMPDEST DUP3 DUP2 DUP4 MCOPY PUSH0 DUP4 DUP4 ADD MSTORE POP POP POP JUMP JUMPDEST PUSH0 PUSH1 0x1F NOT PUSH1 0x1F DUP4 ADD AND SWAP1 POP SWAP2 SWAP1 POP JUMP JUMPDEST PUSH0 PUSH2 0x748 DUP3 PUSH2 0x706 JUMP JUMPDEST PUSH2 0x752 DUP2 DUP6 PUSH2 0x710 JUMP JUMPDEST SWAP4 POP PUSH2 0x762 DUP2 DUP6 PUSH1 0x20 DUP7 ADD PUSH2 0x720 JUMP JUMPDEST PUSH2 0x76B DUP2 PUSH2 0x72E JUMP JUMPDEST DUP5 ADD SWAP2 POP POP SWAP3 SWAP2 POP POP JUMP JUMPDEST PUSH2 0x77F DUP2 PUSH2 0x686 JUMP JUMPDEST DUP3 MSTORE POP POP JUMP JUMPDEST PUSH0 PUSH1 0x80 DUP3 ADD SWAP1 POP PUSH2 0x798 PUSH0 DUP4 ADD DUP8 PUSH2 0x6F7 JUMP JUMPDEST DUP2 DUP2 SUB PUSH1 0x20 DUP4 ADD MSTORE PUSH2 0x7AA DUP2 DUP7 PUSH2 0x73E JUMP JUMPDEST SWAP1 POP PUSH2 0x7B9 PUSH1 0x40 DUP4 ADD DUP6 PUSH2 0x776 JUMP JUMPDEST PUSH2 0x7C6 PUSH1 0x60 DUP4 ADD DUP5 PUSH2 0x776 JUMP JUMPDEST SWAP6 SWAP5 POP POP POP POP POP JUMP JUMPDEST PUSH0 DUP2 MLOAD SWAP1 POP SWAP2 SWAP1 POP JUMP JUMPDEST PUSH0 DUP3 DUP3 MSTORE PUSH1 0x20 DUP3 ADD SWAP1 POP SWAP3 SWAP2 POP POP JUMP JUMPDEST PUSH0 DUP2 SWAP1 POP PUSH1 0x20 DUP3 ADD SWAP1 POP SWAP2 SWAP1 POP JUMP JUMPDEST PUSH2 0x801 DUP2 PUSH2 0x64B JUMP JUMPDEST DUP3 MSTORE POP POP JUMP JUMPDEST PUSH0 DUP3 DUP3 MSTORE PUSH1 0x20 DUP3 ADD SWAP1 POP SWAP3 SWAP2 POP POP JUMP JUMPDEST PUSH0 PUSH2 0x821 DUP3 PUSH2 0x706 JUMP JUMPDEST PUSH2 0x82B DUP2 DUP6 PUSH2 0x807 JUMP JUMPDEST SWAP4 POP PUSH2 0x83B DUP2 DUP6 PUSH1 0x20 DUP7 ADD PUSH2 0x720 JUMP JUMPDEST PUSH2 0x844 DUP2 PUSH2 0x72E JUMP JUMPDEST DUP5 ADD SWAP2 POP POP SWAP3 SWAP2 POP POP JUMP JUMPDEST PUSH2 0x858 DUP2 PUSH2 0x686 JUMP JUMPDEST DUP3 MSTORE POP POP JUMP JUMPDEST PUSH0 PUSH1 0x80 DUP4 ADD PUSH0 DUP4 ADD MLOAD PUSH2 0x873 PUSH0 DUP7 ADD DUP3 PUSH2 0x7F8 JUMP JUMPDEST POP PUSH1 0x20 DUP4 ADD MLOAD DUP5 DUP3 SUB PUSH1 0x20 DUP7 ADD MSTORE PUSH2 0x88B DUP3 DUP3 PUSH2 0x817 JUMP JUMPDEST SWAP2 POP POP PUSH1 0x40 DUP4 ADD MLOAD PUSH2 0x8A0 PUSH1 0x40 DUP7 ADD DUP3 PUSH2 0x84F JUMP JUMPDEST POP PUSH1 0x60 DUP4 ADD MLOAD PUSH2 0x8B3 PUSH1 0x60 DUP7 ADD DUP3 PUSH2 0x84F JUMP JUMPDEST POP DUP1 SWAP2 POP POP SWAP3 SWAP2 POP POP JUMP JUMPDEST PUSH0 PUSH2 0x8C9 DUP4 DUP4 PUSH2 0x85E JUMP JUMPDEST SWAP1 POP SWAP3 SWAP2 POP POP JUMP JUMPDEST PUSH0 PUSH1 0x20 DUP3 ADD SWAP1 POP SWAP2 SWAP1 POP JUMP JUMPDEST PUSH0 PUSH2 0x8E7 DUP3 PUSH2 0x7CF JUMP JUMPDEST PUSH2 0x8F1 DUP2 DUP6 PUSH2 0x7D9 JUMP JUMPDEST SWAP4 POP DUP4 PUSH1 0x20 DUP3 MUL DUP6 ADD PUSH2 0x903 DUP6 PUSH2 0x7E9 JUMP JUMPDEST DUP1 PUSH0 JUMPDEST DUP6 DUP2 LT ISZERO PUSH2 0x93E JUMPI DUP5 DUP5 SUB DUP10 MSTORE DUP2 MLOAD PUSH2 0x91F DUP6 DUP3 PUSH2 0x8BE JUMP JUMPDEST SWAP5 POP PUSH2 0x92A DUP4 PUSH2 0x8D1 JUMP JUMPDEST SWAP3 POP PUSH1 0x20 DUP11 ADD SWAP10 POP POP PUSH1 0x1 DUP2 ADD SWAP1 POP PUSH2 0x906 JUMP JUMPDEST POP DUP3 SWAP8 POP DUP8 SWAP6 POP POP POP POP POP POP SWAP3 SWAP2 POP POP JUMP JUMPDEST PUSH0 PUSH1 0x20 DUP3 ADD SWAP1 POP DUP2 DUP2 SUB PUSH0 DUP4 ADD MSTORE PUSH2 0x968 DUP2 DUP5 PUSH2 0x8DD JUMP JUMPDEST SWAP1 POP SWAP3 SWAP2 POP POP JUMP JUMPDEST PUSH0 DUP1 REVERT JUMPDEST PUSH0 DUP1 REVERT JUMPDEST PUSH32 0x4E487B7100000000000000000000000000000000000000000000000000000000 PUSH0 MSTORE PUSH1 0x41 PUSH1 0x4 MSTORE PUSH1 0x24 PUSH0 REVERT JUMPDEST PUSH2 0x9AE DUP3 PUSH2 0x72E JUMP JUMPDEST DUP2 ADD DUP2 DUP2 LT PUSH8 0xFFFFFFFFFFFFFFFF DUP3 GT OR ISZERO PUSH2 0x9CD JUMPI PUSH2 0x9CC PUSH2 0x978 JUMP JUMPDEST JUMPDEST DUP1 PUSH1 0x40 MSTORE POP POP POP JUMP JUMPDEST PUSH0 PUSH2 0x9DF PUSH2 0x61B JUMP JUMPDEST SWAP1 POP PUSH2 0x9EB DUP3 DUP3 PUSH2 0x9A5 JUMP JUMPDEST SWAP2 SWAP1 POP JUMP JUMPDEST PUSH0 PUSH8 0xFFFFFFFFFFFFFFFF DUP3 GT ISZERO PUSH2 0xA0A JUMPI PUSH2 0xA09 PUSH2 0x978 JUMP JUMPDEST JUMPDEST PUSH2 0xA13 DUP3 PUSH2 0x72E JUMP JUMPDEST SWAP1 POP PUSH1 0x20 DUP2 ADD SWAP1 POP SWAP2 SWAP1 POP JUMP JUMPDEST DUP3 DUP2 DUP4 CALLDATACOPY PUSH0 DUP4 DUP4 ADD MSTORE POP POP POP JUMP JUMPDEST PUSH0 PUSH2 0xA40 PUSH2 0xA3B DUP5 PUSH2 0x9F0 JUMP JUMPDEST PUSH2 0x9D6 JUMP JUMPDEST SWAP1 POP DUP3 DUP2 MSTORE PUSH1 0x20 DUP2 ADD DUP5 DUP5 DUP5 ADD GT ISZERO PUSH2 0xA5C JUMPI PUSH2 0xA5B PUSH2 0x974 JUMP JUMPDEST JUMPDEST PUSH2 0xA67 DUP5 DUP3 DUP6 PUSH2 0xA20 JUMP JUMPDEST POP SWAP4 SWAP3 POP POP POP JUMP JUMPDEST PUSH0 DUP3 PUSH1 0x1F DUP4 ADD SLT PUSH2 0xA83 JUMPI PUSH2 0xA82 PUSH2 0x970 JUMP JUMPDEST JUMPDEST DUP2 CALLDATALOAD PUSH2 0xA93 DUP5 DUP3 PUSH1 0x20 DUP7 ADD PUSH2 0xA2E JUMP JUMPDEST SWAP2 POP POP SWAP3 SWAP2 POP POP JUMP JUMPDEST PUSH0 PUSH1 0x20 DUP3 DUP5 SUB SLT ISZERO PUSH2 0xAB1 JUMPI PUSH2 0xAB0 PUSH2 0x624 JUMP JUMPDEST JUMPDEST PUSH0 DUP3 ADD CALLDATALOAD PUSH8 0xFFFFFFFFFFFFFFFF DUP2 GT ISZERO PUSH2 0xACE JUMPI PUSH2 0xACD PUSH2 0x628 JUMP JUMPDEST JUMPDEST PUSH2 0xADA DUP5 DUP3 DUP6 ADD PUSH2 0xA6F JUMP JUMPDEST SWAP2 POP POP SWAP3 SWAP2 POP POP JUMP JUMPDEST PUSH0 PUSH1 0x20 DUP3 DUP5 SUB SLT ISZERO PUSH2 0xAF8 JUMPI PUSH2 0xAF7 PUSH2 0x624 JUMP JUMPDEST JUMPDEST PUSH0 PUSH2 0xB05 DUP5 DUP3 DUP6 ADD PUSH2 0x6A5 JUMP JUMPDEST SWAP2 POP POP SWAP3 SWAP2 POP POP JUMP JUMPDEST PUSH0 PUSH1 0x80 DUP4 ADD PUSH0 DUP4 ADD MLOAD PUSH2 0xB23 PUSH0 DUP7 ADD DUP3 PUSH2 0x7F8 JUMP JUMPDEST POP PUSH1 0x20 DUP4 ADD MLOAD DUP5 DUP3 SUB PUSH1 0x20 DUP7 ADD MSTORE PUSH2 0xB3B DUP3 DUP3 PUSH2 0x817 JUMP JUMPDEST SWAP2 POP POP PUSH1 0x40 DUP4 ADD MLOAD PUSH2 0xB50 PUSH1 0x40 DUP7 ADD DUP3 PUSH2 0x84F JUMP JUMPDEST POP PUSH1 0x60 DUP4 ADD MLOAD PUSH2 0xB63 PUSH1 0x60 DUP7 ADD DUP3 PUSH2 0x84F JUMP JUMPDEST POP DUP1 SWAP2 POP POP SWAP3 SWAP2 POP POP JUMP JUMPDEST PUSH0 PUSH1 0x20 DUP3 ADD SWAP1 POP DUP2 DUP2 SUB PUSH0 DUP4 ADD MSTORE PUSH2 0xB86 DUP2 DUP5 PUSH2 0xB0E JUMP JUMPDEST SWAP1 POP SWAP3 SWAP2 POP POP JUMP JUMPDEST PUSH32 0x4E487B7100000000000000000000000000000000000000000000000000000000 PUSH0 MSTORE PUSH1 0x22 PUSH1 0x4 MSTORE PUSH1 0x24 PUSH0 REVERT JUMPDEST PUSH0 PUSH1 0x2 DUP3 DIV SWAP1 POP PUSH1 0x1 DUP3 AND DUP1 PUSH2 0xBD2 JUMPI PUSH1 0x7F DUP3 AND SWAP2 POP JUMPDEST PUSH1 0x20 DUP3 LT DUP2 SUB PUSH2 0xBE5 JUMPI PUSH2 0xBE4 PUSH2 0xB8E JUMP JUMPDEST JUMPDEST POP SWAP2 SWAP1 POP JUMP JUMPDEST PUSH0 DUP2 SWAP1 POP DUP2 PUSH0 MSTORE PUSH1 0x20 PUSH0 KECCAK256 SWAP1 POP SWAP2 SWAP1 POP JUMP JUMPDEST PUSH0 PUSH1 0x20 PUSH1 0x1F DUP4 ADD DIV SWAP1 POP SWAP2 SWAP1 POP JUMP JUMPDEST PUSH0 DUP3 DUP3 SHL SWAP1 POP SWAP3 SWAP2 POP POP JUMP JUMPDEST PUSH0 PUSH1 0x8 DUP4 MUL PUSH2 0xC47 PUSH32 0xFFFFFFFFFFFFFFFFFFFFFFFFFFFFFFFFFFFFFFFFFFFFFFFFFFFFFFFFFFFFFFFF DUP3 PUSH2 0xC0C JUMP JUMPDEST PUSH2 0xC51 DUP7 DUP4 PUSH2 0xC0C JUMP JUMPDEST SWAP6 POP DUP1 NOT DUP5 AND SWAP4 POP DUP1 DUP7 AND DUP5 OR SWAP3 POP POP POP SWAP4 SWAP3 POP POP POP JUMP JUMPDEST PUSH0 DUP2 SWAP1 POP SWAP2 SWAP1 POP JUMP JUMPDEST PUSH0 PUSH2 0xC8C PUSH2 0xC87 PUSH2 0xC82 DUP5 PUSH2 0x686 JUMP JUMPDEST PUSH2 0xC69 JUMP JUMPDEST PUSH2 0x686 JUMP JUMPDEST SWAP1 POP SWAP2 SWAP1 POP JUMP JUMPDEST PUSH0 DUP2 SWAP1 POP SWAP2 SWAP1 POP JUMP JUMPDEST PUSH2 0xCA5 DUP4 PUSH2 0xC72 JUMP JUMPDEST PUSH2 0xCB9 PUSH2 0xCB1 DUP3 PUSH2 0xC93 JUMP JUMPDEST DUP5 DUP5 SLOAD PUSH2 0xC18 JUMP JUMPDEST DUP3 SSTORE POP POP POP POP JUMP JUMPDEST PUSH0 SWAP1 JUMP JUMPDEST PUSH2 0xCCD PUSH2 0xCC1 JUMP JUMPDEST PUSH2 0xCD8 DUP2 DUP5 DUP5 PUSH2 0xC9C JUMP JUMPDEST POP POP POP JUMP JUMPDEST JUMPDEST DUP2 DUP2 LT ISZERO PUSH2 0xCFB JUMPI PUSH2 0xCF0 PUSH0 DUP3 PUSH2 0xCC5 JUMP JUMPDEST PUSH1 0x1 DUP2 ADD SWAP1 POP PUSH2 0xCDE JUMP JUMPDEST POP POP JUMP JUMPDEST PUSH1 0x1F DUP3 GT ISZERO PUSH2 0xD40 JUMPI PUSH2 0xD11 DUP2 PUSH2 0xBEB JUMP JUMPDEST PUSH2 0xD1A DUP5 PUSH2 0xBFD JUMP JUMPDEST DUP2 ADD PUSH1 0x20 DUP6 LT ISZERO PUSH2 0xD29 JUMPI DUP2 SWAP1 POP JUMPDEST PUSH2 0xD3D PUSH2 0xD35 DUP6 PUSH2 0xBFD JUMP JUMPDEST DUP4 ADD DUP3 PUSH2 0xCDD JUMP JUMPDEST POP POP JUMPDEST POP POP POP JUMP JUMPDEST PUSH0 DUP3 DUP3 SHR SWAP1 POP SWAP3 SWAP2 POP POP JUMP JUMPDEST PUSH0 PUSH2 0xD60 PUSH0 NOT DUP5 PUSH1 0x8 MUL PUSH2 0xD45 JUMP JUMPDEST NOT DUP1 DUP4 AND SWAP2 POP POP SWAP3 SWAP2 POP POP JUMP JUMPDEST PUSH0 PUSH2 0xD78 DUP4 DUP4 PUSH2 0xD51 JUMP JUMPDEST SWAP2 POP DUP3 PUSH1 0x2 MUL DUP3 OR SWAP1 POP SWAP3 SWAP2 POP POP JUMP JUMPDEST PUSH2 0xD91 DUP3 PUSH2 0x706 JUMP JUMPDEST PUSH8 0xFFFFFFFFFFFFFFFF DUP2 GT ISZERO PUSH2 0xDAA JUMPI PUSH2 0xDA9 PUSH2 0x978 JUMP JUMPDEST JUMPDEST PUSH2 0xDB4 DUP3 SLOAD PUSH2 0xBBB JUMP JUMPDEST PUSH2 0xDBF DUP3 DUP3 DUP6 PUSH2 0xCFF JUMP JUMPDEST PUSH0 PUSH1 0x20 SWAP1 POP PUSH1 0x1F DUP4 GT PUSH1 0x1 DUP2 EQ PUSH2 0xDF0 JUMPI PUSH0 DUP5 ISZERO PUSH2 0xDDE JUMPI DUP3 DUP8 ADD MLOAD SWAP1 POP JUMPDEST PUSH2 0xDE8 DUP6 DUP3 PUSH2 0xD6D JUMP JUMPDEST DUP7 SSTORE POP PUSH2 0xE4F JUMP JUMPDEST PUSH1 0x1F NOT DUP5 AND PUSH2 0xDFE DUP7 PUSH2 0xBEB JUMP JUMPDEST PUSH0 JUMPDEST DUP3 DUP2 LT ISZERO PUSH2 0xE25 JUMPI DUP5 DUP10 ADD MLOAD DUP3 SSTORE PUSH1 0x1 DUP3 ADD SWAP2 POP PUSH1 0x20 DUP6 ADD SWAP5 POP PUSH1 0x20 DUP2 ADD SWAP1 POP PUSH2 0xE00 JUMP JUMPDEST DUP7 DUP4 LT ISZERO PUSH2 0xE42 JUMPI DUP5 DUP10 ADD MLOAD PUSH2 0xE3E PUSH1 0x1F DUP10 AND DUP3 PUSH2 0xD51 JUMP JUMPDEST DUP4 SSTORE POP JUMPDEST PUSH1 0x1 PUSH1 0x2 DUP9 MUL ADD DUP9 SSTORE POP POP POP JUMPDEST POP POP POP POP POP POP JUMP JUMPDEST PUSH32 0x4E487B7100000000000000000000000000000000000000000000000000000000 PUSH0 MSTORE PUSH1 0x32 PUSH1 0x4 MSTORE PUSH1 0x24 PUSH0 REVERT INVALID LOG2 PUSH5 0x6970667358 0x22 SLT KECCAK256 0xB2 0xD5 RETURNDATACOPY DIV 0xDF 0x22 0xE3 PUSH28 0x2DB4BF23112C5374AA92D0AF44BA75C25A3C22D3EEDD9CDD64736F6C PUSH4 0x4300081A STOP CALLER "
				},
				"gasEstimates": {
					"creation": {
						"codeDepositCost": "754000",
						"executionCost": "784",
						"totalCost": "754784"
					},
					"external": {
						"createTweet(string)": "infinite",
						"getAllTweets()": "infinite",
						"getTweet(uint256)": "infinite",
						"tweets(address,uint256)": "infinite"
					}
				},
				"methodIdentifiers": {
					"createTweet(string)": "7c9cd2bc",
					"getAllTweets()": "53256135",
					"getTweet(uint256)": "c3ad5ecb",
					"tweets(address,uint256)": "05a1b4a9"
				}
			},
			"storageLayout": {
				"storage": [
					{
						"astId": 16,
						"contract": "contracts/Twitter.sol:Twitter",
						"label": "tweets",
						"offset": 0,
						"slot": "0",
						"type": "t_mapping(t_address,t_array(t_struct(Tweet)10_storage)dyn_storage)"
					}
				],
				"types": {
					"t_address": {
						"encoding": "inplace",
						"label": "address",
						"numberOfBytes": "20"
					},
					"t_array(t_struct(Tweet)10_storage)dyn_storage": {
						"base": "t_struct(Tweet)10_storage",
						"encoding": "dynamic_array",
						"label": "struct Twitter.Tweet[]",
						"numberOfBytes": "32"
					},
					"t_mapping(t_address,t_array(t_struct(Tweet)10_storage)dyn_storage)": {
						"encoding": "mapping",
						"key": "t_address",
						"label": "mapping(address => struct Twitter.Tweet[])",
						"numberOfBytes": "32",
						"value": "t_array(t_struct(Tweet)10_storage)dyn_storage"
					},
					"t_string_storage": {
						"encoding": "bytes",
						"label": "string",
						"numberOfBytes": "32"
					},
					"t_struct(Tweet)10_storage": {
						"encoding": "inplace",
						"label": "struct Twitter.Tweet",
						"members": [
							{
								"astId": 3,
								"contract": "contracts/Twitter.sol:Twitter",
								"label": "author",
								"offset": 0,
								"slot": "0",
								"type": "t_address"
							},
							{
								"astId": 5,
								"contract": "contracts/Twitter.sol:Twitter",
								"label": "content",
								"offset": 0,
								"slot": "1",
								"type": "t_string_storage"
							},
							{
								"astId": 7,
								"contract": "contracts/Twitter.sol:Twitter",
								"label": "timestamp",
								"offset": 0,
								"slot": "2",
								"type": "t_uint256"
							},
							{
								"astId": 9,
								"contract": "contracts/Twitter.sol:Twitter",
								"label": "likes",
								"offset": 0,
								"slot": "3",
								"type": "t_uint256"
							}
						],
						"numberOfBytes": "128"
					},
					"t_uint256": {
						"encoding": "inplace",
						"label": "uint256",
						"numberOfBytes": "32"
					}
				}
			},
			"userdoc": {
				"kind": "user",
				"methods": {},
				"version": 1
			}
		}
	}
}