{
	"data": {
		"bytecode": {
			"linkReferences": {},
			"object": "60806040525f80553480156011575f80fd5b506102d48061001f5f395ff3fe608060405234801561000f575f80fd5b506004361061004a575f3560e01c80631dc05f171461004e5780633e823f791461006a5780636d4ce63c14610086578063c6888fa1146100a4575b5f80fd5b6100686004803603810190610063919061014d565b6100c0565b005b610084600480360381019061007f919061014d565b6100da565b005b61008e6100f4565b60405161009b9190610187565b60405180910390f35b6100be60048036038101906100b9919061014d565b6100fc565b005b805f808282546100d091906101cd565b9250508190555050565b805f808282546100ea919061022d565b9250508190555050565b5f8054905090565b805f8082825461010c919061025d565b9250508190555050565b5f80fd5b5f819050919050565b61012c8161011a565b8114610136575f80fd5b50565b5f8135905061014781610123565b92915050565b5f6020828403121561016257610161610116565b5b5f61016f84828501610139565b91505092915050565b6101818161011a565b82525050565b5f60208201905061019a5f830184610178565b92915050565b7f4e487b71000000000000000000000000000000000000000000000000000000005f52601160045260245ffd5b5f6101d78261011a565b91506101e28361011a565b92508282039050818111156101fa576101f96101a0565b5b92915050565b7f4e487b71000000000000000000000000000000000000000000000000000000005f52601260045260245ffd5b5f6102378261011a565b91506102428361011a565b92508261025257610251610200565b5b828204905092915050565b5f6102678261011a565b91506102728361011a565b92508282026102808161011a565b91508282048414831517610297576102966101a0565b5b509291505056fea26469706673582212209e0b3ecd93d0bba8e120fda7bc3f276e841775331457c30d54fbca80c90b814c64736f6c634300081a0033",
			"opcodes": "PUSH1 0x80 PUSH1 0x40 MSTORE PUSH0 DUP1 SSTORE CALLVALUE DUP1 ISZERO PUSH1 0x11 JUMPI PUSH0 DUP1 REVERT JUMPDEST POP PUSH2 0x2D4 DUP1 PUSH2 0x1F PUSH0 CODECOPY PUSH0 RETURN INVALID PUSH1 0x80 PUSH1 0x40 MSTORE CALLVALUE DUP1 ISZERO PUSH2 0xF JUMPI PUSH0 DUP1 REVERT JUMPDEST POP PUSH1 0x4 CALLDATASIZE LT PUSH2 0x4A JUMPI PUSH0 CALLDATALOAD PUSH1 0xE0 SHR DUP1 PUSH4 0x1DC05F17 EQ PUSH2 0x4E JUMPI DUP1 PUSH4 0x3E823F79 EQ PUSH2 0x6A JUMPI DUP1 PUSH4 0x6D4CE63C EQ PUSH2 0x86 JUMPI DUP1 PUSH4 0xC6888FA1 EQ PUSH2 0xA4 JUMPI JUMPDEST PUSH0 DUP1 REVERT JUMPDEST PUSH2 0x68 PUSH1 0x4 DUP1 CALLDATASIZE SUB DUP2 ADD SWAP1 PUSH2 0x63 SWAP2 SWAP1 PUSH2 0x14D JUMP JUMPDEST PUSH2 0xC0 JUMP JUMPDEST STOP JUMPDEST PUSH2 0x84 PUSH1 0x4 DUP1 CALLDATASIZE SUB DUP2 ADD SWAP1 PUSH2 0x7F SWAP2 SWAP1 PUSH2 0x14D JUMP JUMPDEST PUSH2 0xDA JUMP JUMPDEST STOP JUMPDEST PUSH2 0x8E PUSH2 0xF4 JUMP JUMPDEST PUSH1 0x40 MLOAD PUSH2 0x9B SWAP2 SWAP1 PUSH2 0x187 JUMP JUMPDEST PUSH1 0x40 MLOAD DUP1 SWAP2 SUB SWAP1 RETURN JUMPDEST PUSH2 0xBE PUSH1 0x4 DUP1 CALLDATASIZE SUB DUP2 ADD SWAP1 PUSH2 0xB9 SWAP2 SWAP1 PUSH2 0x14D JUMP JUMPDEST PUSH2 0xFC JUMP JUMPDEST STOP JUMPDEST DUP1 PUSH0 DUP1 DUP3 DUP3 SLOAD PUSH2 0xD0 SWAP2 SWAP1 PUSH2 0x1CD JUMP JUMPDEST SWAP3 POP POP DUP2 SWAP1 SSTORE POP POP JUMP JUMPDEST DUP1 PUSH0 DUP1 DUP3 DUP3 SLOAD PUSH2 0xEA SWAP2 SWAP1 PUSH2 0x22D JUMP JUMPDEST SWAP3 POP POP DUP2 SWAP1 SSTORE POP POP JUMP JUMPDEST PUSH0 DUP1 SLOAD SWAP1 POP SWAP1 JUMP JUMPDEST DUP1 PUSH0 DUP1 DUP3 DUP3 SLOAD PUSH2 0x10C SWAP2 SWAP1 PUSH2 0x25D JUMP JUMPDEST SWAP3 POP POP DUP2 SWAP1 SSTORE POP POP JUMP JUMPDEST PUSH0 DUP1 REVERT JUMPDEST PUSH0 DUP2 SWAP1 POP SWAP2 SWAP1 POP JUMP JUMPDEST PUSH2 0x12C DUP2 PUSH2 0x11A JUMP JUMPDEST DUP2 EQ PUSH2 0x136 JUMPI PUSH0 DUP1 REVERT JUMPDEST POP JUMP JUMPDEST PUSH0 DUP2 CALLDATALOAD SWAP1 POP PUSH2 0x147 DUP2 PUSH2 0x123 JUMP JUMPDEST SWAP3 SWAP2 POP POP JUMP JUMPDEST PUSH0 PUSH1 0x20 DUP3 DUP5 SUB SLT ISZERO PUSH2 0x162 JUMPI PUSH2 0x161 PUSH2 0x116 JUMP JUMPDEST JUMPDEST PUSH0 PUSH2 0x16F DUP5 DUP3 DUP6 ADD PUSH2 0x139 JUMP JUMPDEST SWAP2 POP POP SWAP3 SWAP2 POP POP JUMP JUMPDEST PUSH2 0x181 DUP2 PUSH2 0x11A JUMP JUMPDEST DUP3 MSTORE POP POP JUMP JUMPDEST PUSH0 PUSH1 0x20 DUP3 ADD SWAP1 POP PUSH2 0x19A PUSH0 DUP4 ADD DUP5 PUSH2 0x178 JUMP JUMPDEST SWAP3 SWAP2 POP POP JUMP JUMPDEST PUSH32 0x4E487B7100000000000000000000000000000000000000000000000000000000 PUSH0 MSTORE PUSH1 0x11 PUSH1 0x4 MSTORE PUSH1 0x24 PUSH0 REVERT JUMPDEST PUSH0 PUSH2 0x1D7 DUP3 PUSH2 0x11A JUMP JUMPDEST SWAP2 POP PUSH2 0x1E2 DUP4 PUSH2 0x11A JUMP JUMPDEST SWAP3 POP DUP3 DUP3 SUB SWAP1 POP DUP2 DUP2 GT ISZERO PUSH2 0x1FA JUMPI PUSH2 0x1F9 PUSH2 0x1A0 JUMP JUMPDEST JUMPDEST SWAP3 SWAP2 POP POP JUMP JUMPDEST PUSH32 0x4E487B7100000000000000000000000000000000000000000000000000000000 PUSH0 MSTORE PUSH1 0x12 PUSH1 0x4 MSTORE PUSH1 0x24 PUSH0 REVERT JUMPDEST PUSH0 PUSH2 0x237 DUP3 PUSH2 0x11A JUMP JUMPDEST SWAP2 POP PUSH2 0x242 DUP4 PUSH2 0x11A JUMP JUMPDEST SWAP3 POP DUP3 PUSH2 0x252 JUMPI PUSH2 0x251 PUSH2 0x200 JUMP JUMPDEST JUMPDEST DUP3 DUP3 DIV SWAP1 POP SWAP3 SWAP2 POP POP JUMP JUMPDEST PUSH0 PUSH2 0x267 DUP3 PUSH2 0x11A JUMP JUMPDEST SWAP2 POP PUSH2 0x272 DUP4 PUSH2 0x11A JUMP JUMPDEST SWAP3 POP DUP3 DUP3 MUL PUSH2 0x280 DUP2 PUSH2 0x11A JUMP JUMPDEST SWAP2 POP DUP3 DUP3 DIV DUP5 EQ DUP4 ISZERO OR PUSH2 0x297 JUMPI PUSH2 0x296 PUSH2 0x1A0 JUMP JUMPDEST JUMPDEST POP SWAP3 SWAP2 POP POP JUMP INVALID LOG2 PUSH5 0x6970667358 0x22 SLT KECCAK256 SWAP15 SIGNEXTEND RETURNDATACOPY 0xCD SWAP4 0xD0 0xBB 0xA8 0xE1 KECCAK256 REVERT 0xA7 0xBC EXTCODEHASH 0x27 PUSH15 0x841775331457C30D54FBCA80C90B81 0x4C PUSH5 0x736F6C6343 STOP ADDMOD BYTE STOP CALLER "
		},
		"gasEstimates": {
			"creation": {
				"codeDepositCost": "144800",
				"executionCost": "5193",
				"totalCost": "149993"
			},
			"external": {
				"divide(uint256)": "infinite",
				"get()": "2454",
				"multiply(uint256)": "infinite",
				"subtract(uint256)": "infinite"
			},
			"internal": {
				"add(uint256)": "infinite"
			}
		},
		"methodIdentifiers": {
			"divide(uint256)": "3e823f79",
			"get()": "6d4ce63c",
			"multiply(uint256)": "c6888fa1",
			"subtract(uint256)": "1dc05f17"
		}
	},
	"abi": [
		{
			"inputs": [
				{
					"internalType": "uint256",
					"name": "num",
					"type": "uint256"
				}
			],
			"name": "divide",
			"outputs": [],
			"stateMutability": "nonpayable",
			"type": "function"
		},
		{
			"inputs": [],
			"name": "get",
			"outputs": [
				{
					"internalType": "uint256",
					"name": "",
					"type": "uint256"
				}
			],
			"stateMutability": "view",
			"type": "function"
		},
		{
			"inputs": [
				{
					"internalType": "uint256",
					"name": "num",
					"type": "uint256"
				}
			],
			"name": "multiply",
			"outputs": [],
			"stateMutability": "nonpayable",
			"type": "function"
		},
		{
			"inputs": [
				{
					"internalType": "uint256",
					"name": "num",
					"type": "uint256"
				}
			],
			"name": "subtract",
			"outputs": [],
			"stateMutability": "nonpayable",
			"type": "function"
		}
	]
}